{"contracts/Passport.sol":{"Passport":{"abi":[{"inputs":[{"internalType":"string","name":"_firstName","type":"string"},{"internalType":"string","name":"_lastName","type":"string"},{"internalType":"string","name":"_gender","type":"string"},{"internalType":"uint256","name":"_age","type":"uint256"},{"internalType":"string","name":"_nationality","type":"string"},{"internalType":"uint256","name":"_byear","type":"uint256"},{"internalType":"uint256","name":"_bmonth","type":"uint256"},{"internalType":"uint256","name":"_bday","type":"uint256"},{"internalType":"string","name":"_country","type":"string"}],"name":"createPassport","outputs":[],"stateMutability":"nonpayable","type":"function"},{"inputs":[{"internalType":"string","name":"_firstName","type":"string"},{"internalType":"string","name":"_lastName","type":"string"},{"internalType":"string","name":"_gender","type":"string"}],"name":"updatePassport","outputs":[],"stateMutability":"nonpayable","type":"function"},{"inputs":[{"internalType":"address","name":"","type":"address"}],"name":"user","outputs":[{"internalType":"string","name":"firstName","type":"string"},{"internalType":"string","name":"lastName","type":"string"},{"internalType":"string","name":"gender","type":"string"},{"internalType":"uint256","name":"age","type":"uint256"},{"internalType":"string","name":"nationality","type":"string"},{"components":[{"internalType":"uint256","name":"day","type":"uint256"},{"internalType":"uint256","name":"month","type":"uint256"},{"internalType":"uint256","name":"year","type":"uint256"}],"internalType":"struct Passport.Year","name":"dob","type":"tuple"},{"internalType":"string","name":"country","type":"string"}],"stateMutability":"view","type":"function"},{"inputs":[],"name":"viewPassport","outputs":[{"components":[{"internalType":"string","name":"firstName","type":"string"},{"internalType":"string","name":"lastName","type":"string"},{"internalType":"string","name":"gender","type":"string"},{"internalType":"uint256","name":"age","type":"uint256"},{"internalType":"string","name":"nationality","type":"string"},{"components":[{"internalType":"uint256","name":"day","type":"uint256"},{"internalType":"uint256","name":"month","type":"uint256"},{"internalType":"uint256","name":"year","type":"uint256"}],"internalType":"struct Passport.Year","name":"dob","type":"tuple"},{"internalType":"string","name":"country","type":"string"}],"internalType":"struct Passport.Person","name":"","type":"tuple"}],"stateMutability":"view","type":"function"}],"evm":{"bytecode":{"linkReferences":{},"object":"6080604052336000806101000a81548173ffffffffffffffffffffffffffffffffffffffff021916908373ffffffffffffffffffffffffffffffffffffffff16021790555034801561005057600080fd5b5061125e806100606000396000f3fe608060405234801561001057600080fd5b506004361061004c5760003560e01c806381e7e20e14610051578063849cf362146100875780639d22bc69146100a3578063bf09626a146100bf575b600080fd5b61006b60048036038101906100669190610b3d565b6100dd565b60405161007e9796959493929190610c6d565b60405180910390f35b6100a1600480360381019061009c9190610e62565b6103ef565b005b6100bd60048036038101906100b89190610fb8565b61054d565b005b6100c7610657565b6040516100d491906111a5565b60405180910390f35b6001602052806000526040600020600091509050806000018054610100906111f6565b80601f016020809104026020016040519081016040528092919081815260200182805461012c906111f6565b80156101795780601f1061014e57610100808354040283529160200191610179565b820191906000526020600020905b81548152906001019060200180831161015c57829003601f168201915b50505050509080600101805461018e906111f6565b80601f01602080910402602001604051908101604052809291908181526020018280546101ba906111f6565b80156102075780601f106101dc57610100808354040283529160200191610207565b820191906000526020600020905b8154815290600101906020018083116101ea57829003601f168201915b50505050509080600201805461021c906111f6565b80601f0160208091040260200160405190810160405280929190818152602001828054610248906111f6565b80156102955780601f1061026a57610100808354040283529160200191610295565b820191906000526020600020905b81548152906001019060200180831161027857829003601f168201915b5050505050908060030154908060040180546102b0906111f6565b80601f01602080910402602001604051908101604052809291908181526020018280546102dc906111f6565b80156103295780601f106102fe57610100808354040283529160200191610329565b820191906000526020600020905b81548152906001019060200180831161030c57829003601f168201915b5050505050908060050160405180606001604052908160008201548152602001600182015481526020016002820154815250509080600801805461036c906111f6565b80601f0160208091040260200160405190810160405280929190818152602001828054610398906111f6565b80156103e55780601f106103ba576101008083540402835291602001916103e5565b820191906000526020600020905b8154815290600101906020018083116103c857829003601f168201915b5050505050905087565b6040518060e001604052808a8152602001898152602001888152602001878152602001868152602001604051806060016040528085815260200186815260200187815250815260200182815250600160003373ffffffffffffffffffffffffffffffffffffffff1673ffffffffffffffffffffffffffffffffffffffff16815260200190815260200160002060008201518160000190805190602001906104979291906109c4565b5060208201518160010190805190602001906104b49291906109c4565b5060408201518160020190805190602001906104d19291906109c4565b506060820151816003015560808201518160040190805190602001906104f89291906109c4565b5060a082015181600501600082015181600001556020820151816001015560408201518160020155505060c082015181600801908051906020019061053e9291906109c4565b50905050505050505050505050565b82600160003373ffffffffffffffffffffffffffffffffffffffff1673ffffffffffffffffffffffffffffffffffffffff16815260200190815260200160002060000190805190602001906105a39291906109c4565b5081600160003373ffffffffffffffffffffffffffffffffffffffff1673ffffffffffffffffffffffffffffffffffffffff16815260200190815260200160002060010190805190602001906105fa9291906109c4565b5080600160003373ffffffffffffffffffffffffffffffffffffffff1673ffffffffffffffffffffffffffffffffffffffff16815260200190815260200160002060020190805190602001906106519291906109c4565b50505050565b61065f610a4a565b600160003373ffffffffffffffffffffffffffffffffffffffff1673ffffffffffffffffffffffffffffffffffffffff1681526020019081526020016000206040518060e00160405290816000820180546106b9906111f6565b80601f01602080910402602001604051908101604052809291908181526020018280546106e5906111f6565b80156107325780601f1061070757610100808354040283529160200191610732565b820191906000526020600020905b81548152906001019060200180831161071557829003601f168201915b5050505050815260200160018201805461074b906111f6565b80601f0160208091040260200160405190810160405280929190818152602001828054610777906111f6565b80156107c45780601f10610799576101008083540402835291602001916107c4565b820191906000526020600020905b8154815290600101906020018083116107a757829003601f168201915b505050505081526020016002820180546107dd906111f6565b80601f0160208091040260200160405190810160405280929190818152602001828054610809906111f6565b80156108565780601f1061082b57610100808354040283529160200191610856565b820191906000526020600020905b81548152906001019060200180831161083957829003601f168201915b5050505050815260200160038201548152602001600482018054610879906111f6565b80601f01602080910402602001604051908101604052809291908181526020018280546108a5906111f6565b80156108f25780601f106108c7576101008083540402835291602001916108f2565b820191906000526020600020905b8154815290600101906020018083116108d557829003601f168201915b50505050508152602001600582016040518060600160405290816000820154815260200160018201548152602001600282015481525050815260200160088201805461093d906111f6565b80601f0160208091040260200160405190810160405280929190818152602001828054610969906111f6565b80156109b65780601f1061098b576101008083540402835291602001916109b6565b820191906000526020600020905b81548152906001019060200180831161099957829003601f168201915b505050505081525050905090565b8280546109d0906111f6565b90600052602060002090601f0160209004810192826109f25760008555610a39565b82601f10610a0b57805160ff1916838001178555610a39565b82800160010185558215610a39579182015b82811115610a38578251825591602001919060010190610a1d565b5b509050610a469190610a8d565b5090565b6040518060e001604052806060815260200160608152602001606081526020016000815260200160608152602001610a80610aaa565b8152602001606081525090565b5b80821115610aa6576000816000905550600101610a8e565b5090565b60405180606001604052806000815260200160008152602001600081525090565b6000604051905090565b600080fd5b600080fd5b600073ffffffffffffffffffffffffffffffffffffffff82169050919050565b6000610b0a82610adf565b9050919050565b610b1a81610aff565b8114610b2557600080fd5b50565b600081359050610b3781610b11565b92915050565b600060208284031215610b5357610b52610ad5565b5b6000610b6184828501610b28565b91505092915050565b600081519050919050565b600082825260208201905092915050565b60005b83811015610ba4578082015181840152602081019050610b89565b83811115610bb3576000848401525b50505050565b6000601f19601f8301169050919050565b6000610bd582610b6a565b610bdf8185610b75565b9350610bef818560208601610b86565b610bf881610bb9565b840191505092915050565b6000819050919050565b610c1681610c03565b82525050565b610c2581610c03565b82525050565b606082016000820151610c416000850182610c1c565b506020820151610c546020850182610c1c565b506040820151610c676040850182610c1c565b50505050565b6000610120820190508181036000830152610c88818a610bca565b90508181036020830152610c9c8189610bca565b90508181036040830152610cb08188610bca565b9050610cbf6060830187610c0d565b8181036080830152610cd18186610bca565b9050610ce060a0830185610c2b565b818103610100830152610cf38184610bca565b905098975050505050505050565b600080fd5b600080fd5b7f4e487b7100000000000000000000000000000000000000000000000000000000600052604160045260246000fd5b610d4382610bb9565b810181811067ffffffffffffffff82111715610d6257610d61610d0b565b5b80604052505050565b6000610d75610acb565b9050610d818282610d3a565b919050565b600067ffffffffffffffff821115610da157610da0610d0b565b5b610daa82610bb9565b9050602081019050919050565b82818337600083830152505050565b6000610dd9610dd484610d86565b610d6b565b905082815260208101848484011115610df557610df4610d06565b5b610e00848285610db7565b509392505050565b600082601f830112610e1d57610e1c610d01565b5b8135610e2d848260208601610dc6565b91505092915050565b610e3f81610c03565b8114610e4a57600080fd5b50565b600081359050610e5c81610e36565b92915050565b60008060008060008060008060006101208a8c031215610e8557610e84610ad5565b5b60008a013567ffffffffffffffff811115610ea357610ea2610ada565b5b610eaf8c828d01610e08565b99505060208a013567ffffffffffffffff811115610ed057610ecf610ada565b5b610edc8c828d01610e08565b98505060408a013567ffffffffffffffff811115610efd57610efc610ada565b5b610f098c828d01610e08565b9750506060610f1a8c828d01610e4d565b96505060808a013567ffffffffffffffff811115610f3b57610f3a610ada565b5b610f478c828d01610e08565b95505060a0610f588c828d01610e4d565b94505060c0610f698c828d01610e4d565b93505060e0610f7a8c828d01610e4d565b9250506101008a013567ffffffffffffffff811115610f9c57610f9b610ada565b5b610fa88c828d01610e08565b9150509295985092959850929598565b600080600060608486031215610fd157610fd0610ad5565b5b600084013567ffffffffffffffff811115610fef57610fee610ada565b5b610ffb86828701610e08565b935050602084013567ffffffffffffffff81111561101c5761101b610ada565b5b61102886828701610e08565b925050604084013567ffffffffffffffff81111561104957611048610ada565b5b61105586828701610e08565b9150509250925092565b600082825260208201905092915050565b600061107b82610b6a565b611085818561105f565b9350611095818560208601610b86565b61109e81610bb9565b840191505092915050565b6060820160008201516110bf6000850182610c1c565b5060208201516110d26020850182610c1c565b5060408201516110e56040850182610c1c565b50505050565b60006101208301600083015184820360008601526111098282611070565b915050602083015184820360208601526111238282611070565b9150506040830151848203604086015261113d8282611070565b91505060608301516111526060860182610c1c565b506080830151848203608086015261116a8282611070565b91505060a083015161117f60a08601826110a9565b5060c08301518482036101008601526111988282611070565b9150508091505092915050565b600060208201905081810360008301526111bf81846110eb565b905092915050565b7f4e487b7100000000000000000000000000000000000000000000000000000000600052602260045260246000fd5b6000600282049050600182168061120e57607f821691505b60208210811415611222576112216111c7565b5b5091905056fea2646970667358221220c0b98bbb99b81597525d60ac1e5a0817c5d5ff734e5af813bc233920b55481d764736f6c63430008090033","opcodes":"PUSH1 0x80 PUSH1 0x40 MSTORE CALLER PUSH1 0x0 DUP1 PUSH2 0x100 EXP DUP2 SLOAD DUP2 PUSH20 0xFFFFFFFFFFFFFFFFFFFFFFFFFFFFFFFFFFFFFFFF MUL NOT AND SWAP1 DUP4 PUSH20 0xFFFFFFFFFFFFFFFFFFFFFFFFFFFFFFFFFFFFFFFF AND MUL OR SWAP1 SSTORE POP CALLVALUE DUP1 ISZERO PUSH2 0x50 JUMPI PUSH1 0x0 DUP1 REVERT JUMPDEST POP PUSH2 0x125E DUP1 PUSH2 0x60 PUSH1 0x0 CODECOPY PUSH1 0x0 RETURN INVALID PUSH1 0x80 PUSH1 0x40 MSTORE CALLVALUE DUP1 ISZERO PUSH2 0x10 JUMPI PUSH1 0x0 DUP1 REVERT JUMPDEST POP PUSH1 0x4 CALLDATASIZE LT PUSH2 0x4C JUMPI PUSH1 0x0 CALLDATALOAD PUSH1 0xE0 SHR DUP1 PUSH4 0x81E7E20E EQ PUSH2 0x51 JUMPI DUP1 PUSH4 0x849CF362 EQ PUSH2 0x87 JUMPI DUP1 PUSH4 0x9D22BC69 EQ PUSH2 0xA3 JUMPI DUP1 PUSH4 0xBF09626A EQ PUSH2 0xBF JUMPI JUMPDEST PUSH1 0x0 DUP1 REVERT JUMPDEST PUSH2 0x6B PUSH1 0x4 DUP1 CALLDATASIZE SUB DUP2 ADD SWAP1 PUSH2 0x66 SWAP2 SWAP1 PUSH2 0xB3D JUMP JUMPDEST PUSH2 0xDD JUMP JUMPDEST PUSH1 0x40 MLOAD PUSH2 0x7E SWAP8 SWAP7 SWAP6 SWAP5 SWAP4 SWAP3 SWAP2 SWAP1 PUSH2 0xC6D JUMP JUMPDEST PUSH1 0x40 MLOAD DUP1 SWAP2 SUB SWAP1 RETURN JUMPDEST PUSH2 0xA1 PUSH1 0x4 DUP1 CALLDATASIZE SUB DUP2 ADD SWAP1 PUSH2 0x9C SWAP2 SWAP1 PUSH2 0xE62 JUMP JUMPDEST PUSH2 0x3EF JUMP JUMPDEST STOP JUMPDEST PUSH2 0xBD PUSH1 0x4 DUP1 CALLDATASIZE SUB DUP2 ADD SWAP1 PUSH2 0xB8 SWAP2 SWAP1 PUSH2 0xFB8 JUMP JUMPDEST PUSH2 0x54D JUMP JUMPDEST STOP JUMPDEST PUSH2 0xC7 PUSH2 0x657 JUMP JUMPDEST PUSH1 0x40 MLOAD PUSH2 0xD4 SWAP2 SWAP1 PUSH2 0x11A5 JUMP JUMPDEST PUSH1 0x40 MLOAD DUP1 SWAP2 SUB SWAP1 RETURN JUMPDEST PUSH1 0x1 PUSH1 0x20 MSTORE DUP1 PUSH1 0x0 MSTORE PUSH1 0x40 PUSH1 0x0 KECCAK256 PUSH1 0x0 SWAP2 POP SWAP1 POP DUP1 PUSH1 0x0 ADD DUP1 SLOAD PUSH2 0x100 SWAP1 PUSH2 0x11F6 JUMP JUMPDEST DUP1 PUSH1 0x1F ADD PUSH1 0x20 DUP1 SWAP2 DIV MUL PUSH1 0x20 ADD PUSH1 0x40 MLOAD SWAP1 DUP2 ADD PUSH1 0x40 MSTORE DUP1 SWAP3 SWAP2 SWAP1 DUP2 DUP2 MSTORE PUSH1 0x20 ADD DUP3 DUP1 SLOAD PUSH2 0x12C SWAP1 PUSH2 0x11F6 JUMP JUMPDEST DUP1 ISZERO PUSH2 0x179 JUMPI DUP1 PUSH1 0x1F LT PUSH2 0x14E JUMPI PUSH2 0x100 DUP1 DUP4 SLOAD DIV MUL DUP4 MSTORE SWAP2 PUSH1 0x20 ADD SWAP2 PUSH2 0x179 JUMP JUMPDEST DUP3 ADD SWAP2 SWAP1 PUSH1 0x0 MSTORE PUSH1 0x20 PUSH1 0x0 KECCAK256 SWAP1 JUMPDEST DUP2 SLOAD DUP2 MSTORE SWAP1 PUSH1 0x1 ADD SWAP1 PUSH1 0x20 ADD DUP1 DUP4 GT PUSH2 0x15C JUMPI DUP3 SWAP1 SUB PUSH1 0x1F AND DUP3 ADD SWAP2 JUMPDEST POP POP POP POP POP SWAP1 DUP1 PUSH1 0x1 ADD DUP1 SLOAD PUSH2 0x18E SWAP1 PUSH2 0x11F6 JUMP JUMPDEST DUP1 PUSH1 0x1F ADD PUSH1 0x20 DUP1 SWAP2 DIV MUL PUSH1 0x20 ADD PUSH1 0x40 MLOAD SWAP1 DUP2 ADD PUSH1 0x40 MSTORE DUP1 SWAP3 SWAP2 SWAP1 DUP2 DUP2 MSTORE PUSH1 0x20 ADD DUP3 DUP1 SLOAD PUSH2 0x1BA SWAP1 PUSH2 0x11F6 JUMP JUMPDEST DUP1 ISZERO PUSH2 0x207 JUMPI DUP1 PUSH1 0x1F LT PUSH2 0x1DC JUMPI PUSH2 0x100 DUP1 DUP4 SLOAD DIV MUL DUP4 MSTORE SWAP2 PUSH1 0x20 ADD SWAP2 PUSH2 0x207 JUMP JUMPDEST DUP3 ADD SWAP2 SWAP1 PUSH1 0x0 MSTORE PUSH1 0x20 PUSH1 0x0 KECCAK256 SWAP1 JUMPDEST DUP2 SLOAD DUP2 MSTORE SWAP1 PUSH1 0x1 ADD SWAP1 PUSH1 0x20 ADD DUP1 DUP4 GT PUSH2 0x1EA JUMPI DUP3 SWAP1 SUB PUSH1 0x1F AND DUP3 ADD SWAP2 JUMPDEST POP POP POP POP POP SWAP1 DUP1 PUSH1 0x2 ADD DUP1 SLOAD PUSH2 0x21C SWAP1 PUSH2 0x11F6 JUMP JUMPDEST DUP1 PUSH1 0x1F ADD PUSH1 0x20 DUP1 SWAP2 DIV MUL PUSH1 0x20 ADD PUSH1 0x40 MLOAD SWAP1 DUP2 ADD PUSH1 0x40 MSTORE DUP1 SWAP3 SWAP2 SWAP1 DUP2 DUP2 MSTORE PUSH1 0x20 ADD DUP3 DUP1 SLOAD PUSH2 0x248 SWAP1 PUSH2 0x11F6 JUMP JUMPDEST DUP1 ISZERO PUSH2 0x295 JUMPI DUP1 PUSH1 0x1F LT PUSH2 0x26A JUMPI PUSH2 0x100 DUP1 DUP4 SLOAD DIV MUL DUP4 MSTORE SWAP2 PUSH1 0x20 ADD SWAP2 PUSH2 0x295 JUMP JUMPDEST DUP3 ADD SWAP2 SWAP1 PUSH1 0x0 MSTORE PUSH1 0x20 PUSH1 0x0 KECCAK256 SWAP1 JUMPDEST DUP2 SLOAD DUP2 MSTORE SWAP1 PUSH1 0x1 ADD SWAP1 PUSH1 0x20 ADD DUP1 DUP4 GT PUSH2 0x278 JUMPI DUP3 SWAP1 SUB PUSH1 0x1F AND DUP3 ADD SWAP2 JUMPDEST POP POP POP POP POP SWAP1 DUP1 PUSH1 0x3 ADD SLOAD SWAP1 DUP1 PUSH1 0x4 ADD DUP1 SLOAD PUSH2 0x2B0 SWAP1 PUSH2 0x11F6 JUMP JUMPDEST DUP1 PUSH1 0x1F ADD PUSH1 0x20 DUP1 SWAP2 DIV MUL PUSH1 0x20 ADD PUSH1 0x40 MLOAD SWAP1 DUP2 ADD PUSH1 0x40 MSTORE DUP1 SWAP3 SWAP2 SWAP1 DUP2 DUP2 MSTORE PUSH1 0x20 ADD DUP3 DUP1 SLOAD PUSH2 0x2DC SWAP1 PUSH2 0x11F6 JUMP JUMPDEST DUP1 ISZERO PUSH2 0x329 JUMPI DUP1 PUSH1 0x1F LT PUSH2 0x2FE JUMPI PUSH2 0x100 DUP1 DUP4 SLOAD DIV MUL DUP4 MSTORE SWAP2 PUSH1 0x20 ADD SWAP2 PUSH2 0x329 JUMP JUMPDEST DUP3 ADD SWAP2 SWAP1 PUSH1 0x0 MSTORE PUSH1 0x20 PUSH1 0x0 KECCAK256 SWAP1 JUMPDEST DUP2 SLOAD DUP2 MSTORE SWAP1 PUSH1 0x1 ADD SWAP1 PUSH1 0x20 ADD DUP1 DUP4 GT PUSH2 0x30C JUMPI DUP3 SWAP1 SUB PUSH1 0x1F AND DUP3 ADD SWAP2 JUMPDEST POP POP POP POP POP SWAP1 DUP1 PUSH1 0x5 ADD PUSH1 0x40 MLOAD DUP1 PUSH1 0x60 ADD PUSH1 0x40 MSTORE SWAP1 DUP2 PUSH1 0x0 DUP3 ADD SLOAD DUP2 MSTORE PUSH1 0x20 ADD PUSH1 0x1 DUP3 ADD SLOAD DUP2 MSTORE PUSH1 0x20 ADD PUSH1 0x2 DUP3 ADD SLOAD DUP2 MSTORE POP POP SWAP1 DUP1 PUSH1 0x8 ADD DUP1 SLOAD PUSH2 0x36C SWAP1 PUSH2 0x11F6 JUMP JUMPDEST DUP1 PUSH1 0x1F ADD PUSH1 0x20 DUP1 SWAP2 DIV MUL PUSH1 0x20 ADD PUSH1 0x40 MLOAD SWAP1 DUP2 ADD PUSH1 0x40 MSTORE DUP1 SWAP3 SWAP2 SWAP1 DUP2 DUP2 MSTORE PUSH1 0x20 ADD DUP3 DUP1 SLOAD PUSH2 0x398 SWAP1 PUSH2 0x11F6 JUMP JUMPDEST DUP1 ISZERO PUSH2 0x3E5 JUMPI DUP1 PUSH1 0x1F LT PUSH2 0x3BA JUMPI PUSH2 0x100 DUP1 DUP4 SLOAD DIV MUL DUP4 MSTORE SWAP2 PUSH1 0x20 ADD SWAP2 PUSH2 0x3E5 JUMP JUMPDEST DUP3 ADD SWAP2 SWAP1 PUSH1 0x0 MSTORE PUSH1 0x20 PUSH1 0x0 KECCAK256 SWAP1 JUMPDEST DUP2 SLOAD DUP2 MSTORE SWAP1 PUSH1 0x1 ADD SWAP1 PUSH1 0x20 ADD DUP1 DUP4 GT PUSH2 0x3C8 JUMPI DUP3 SWAP1 SUB PUSH1 0x1F AND DUP3 ADD SWAP2 JUMPDEST POP POP POP POP POP SWAP1 POP DUP8 JUMP JUMPDEST PUSH1 0x40 MLOAD DUP1 PUSH1 0xE0 ADD PUSH1 0x40 MSTORE DUP1 DUP11 DUP2 MSTORE PUSH1 0x20 ADD DUP10 DUP2 MSTORE PUSH1 0x20 ADD DUP9 DUP2 MSTORE PUSH1 0x20 ADD DUP8 DUP2 MSTORE PUSH1 0x20 ADD DUP7 DUP2 MSTORE PUSH1 0x20 ADD PUSH1 0x40 MLOAD DUP1 PUSH1 0x60 ADD PUSH1 0x40 MSTORE DUP1 DUP6 DUP2 MSTORE PUSH1 0x20 ADD DUP7 DUP2 MSTORE PUSH1 0x20 ADD DUP8 DUP2 MSTORE POP DUP2 MSTORE PUSH1 0x20 ADD DUP3 DUP2 MSTORE POP PUSH1 0x1 PUSH1 0x0 CALLER PUSH20 0xFFFFFFFFFFFFFFFFFFFFFFFFFFFFFFFFFFFFFFFF AND PUSH20 0xFFFFFFFFFFFFFFFFFFFFFFFFFFFFFFFFFFFFFFFF AND DUP2 MSTORE PUSH1 0x20 ADD SWAP1 DUP2 MSTORE PUSH1 0x20 ADD PUSH1 0x0 KECCAK256 PUSH1 0x0 DUP3 ADD MLOAD DUP2 PUSH1 0x0 ADD SWAP1 DUP1 MLOAD SWAP1 PUSH1 0x20 ADD SWAP1 PUSH2 0x497 SWAP3 SWAP2 SWAP1 PUSH2 0x9C4 JUMP JUMPDEST POP PUSH1 0x20 DUP3 ADD MLOAD DUP2 PUSH1 0x1 ADD SWAP1 DUP1 MLOAD SWAP1 PUSH1 0x20 ADD SWAP1 PUSH2 0x4B4 SWAP3 SWAP2 SWAP1 PUSH2 0x9C4 JUMP JUMPDEST POP PUSH1 0x40 DUP3 ADD MLOAD DUP2 PUSH1 0x2 ADD SWAP1 DUP1 MLOAD SWAP1 PUSH1 0x20 ADD SWAP1 PUSH2 0x4D1 SWAP3 SWAP2 SWAP1 PUSH2 0x9C4 JUMP JUMPDEST POP PUSH1 0x60 DUP3 ADD MLOAD DUP2 PUSH1 0x3 ADD SSTORE PUSH1 0x80 DUP3 ADD MLOAD DUP2 PUSH1 0x4 ADD SWAP1 DUP1 MLOAD SWAP1 PUSH1 0x20 ADD SWAP1 PUSH2 0x4F8 SWAP3 SWAP2 SWAP1 PUSH2 0x9C4 JUMP JUMPDEST POP PUSH1 0xA0 DUP3 ADD MLOAD DUP2 PUSH1 0x5 ADD PUSH1 0x0 DUP3 ADD MLOAD DUP2 PUSH1 0x0 ADD SSTORE PUSH1 0x20 DUP3 ADD MLOAD DUP2 PUSH1 0x1 ADD SSTORE PUSH1 0x40 DUP3 ADD MLOAD DUP2 PUSH1 0x2 ADD SSTORE POP POP PUSH1 0xC0 DUP3 ADD MLOAD DUP2 PUSH1 0x8 ADD SWAP1 DUP1 MLOAD SWAP1 PUSH1 0x20 ADD SWAP1 PUSH2 0x53E SWAP3 SWAP2 SWAP1 PUSH2 0x9C4 JUMP JUMPDEST POP SWAP1 POP POP POP POP POP POP POP POP POP POP POP JUMP JUMPDEST DUP3 PUSH1 0x1 PUSH1 0x0 CALLER PUSH20 0xFFFFFFFFFFFFFFFFFFFFFFFFFFFFFFFFFFFFFFFF AND PUSH20 0xFFFFFFFFFFFFFFFFFFFFFFFFFFFFFFFFFFFFFFFF AND DUP2 MSTORE PUSH1 0x20 ADD SWAP1 DUP2 MSTORE PUSH1 0x20 ADD PUSH1 0x0 KECCAK256 PUSH1 0x0 ADD SWAP1 DUP1 MLOAD SWAP1 PUSH1 0x20 ADD SWAP1 PUSH2 0x5A3 SWAP3 SWAP2 SWAP1 PUSH2 0x9C4 JUMP JUMPDEST POP DUP2 PUSH1 0x1 PUSH1 0x0 CALLER PUSH20 0xFFFFFFFFFFFFFFFFFFFFFFFFFFFFFFFFFFFFFFFF AND PUSH20 0xFFFFFFFFFFFFFFFFFFFFFFFFFFFFFFFFFFFFFFFF AND DUP2 MSTORE PUSH1 0x20 ADD SWAP1 DUP2 MSTORE PUSH1 0x20 ADD PUSH1 0x0 KECCAK256 PUSH1 0x1 ADD SWAP1 DUP1 MLOAD SWAP1 PUSH1 0x20 ADD SWAP1 PUSH2 0x5FA SWAP3 SWAP2 SWAP1 PUSH2 0x9C4 JUMP JUMPDEST POP DUP1 PUSH1 0x1 PUSH1 0x0 CALLER PUSH20 0xFFFFFFFFFFFFFFFFFFFFFFFFFFFFFFFFFFFFFFFF AND PUSH20 0xFFFFFFFFFFFFFFFFFFFFFFFFFFFFFFFFFFFFFFFF AND DUP2 MSTORE PUSH1 0x20 ADD SWAP1 DUP2 MSTORE PUSH1 0x20 ADD PUSH1 0x0 KECCAK256 PUSH1 0x2 ADD SWAP1 DUP1 MLOAD SWAP1 PUSH1 0x20 ADD SWAP1 PUSH2 0x651 SWAP3 SWAP2 SWAP1 PUSH2 0x9C4 JUMP JUMPDEST POP POP POP POP JUMP JUMPDEST PUSH2 0x65F PUSH2 0xA4A JUMP JUMPDEST PUSH1 0x1 PUSH1 0x0 CALLER PUSH20 0xFFFFFFFFFFFFFFFFFFFFFFFFFFFFFFFFFFFFFFFF AND PUSH20 0xFFFFFFFFFFFFFFFFFFFFFFFFFFFFFFFFFFFFFFFF AND DUP2 MSTORE PUSH1 0x20 ADD SWAP1 DUP2 MSTORE PUSH1 0x20 ADD PUSH1 0x0 KECCAK256 PUSH1 0x40 MLOAD DUP1 PUSH1 0xE0 ADD PUSH1 0x40 MSTORE SWAP1 DUP2 PUSH1 0x0 DUP3 ADD DUP1 SLOAD PUSH2 0x6B9 SWAP1 PUSH2 0x11F6 JUMP JUMPDEST DUP1 PUSH1 0x1F ADD PUSH1 0x20 DUP1 SWAP2 DIV MUL PUSH1 0x20 ADD PUSH1 0x40 MLOAD SWAP1 DUP2 ADD PUSH1 0x40 MSTORE DUP1 SWAP3 SWAP2 SWAP1 DUP2 DUP2 MSTORE PUSH1 0x20 ADD DUP3 DUP1 SLOAD PUSH2 0x6E5 SWAP1 PUSH2 0x11F6 JUMP JUMPDEST DUP1 ISZERO PUSH2 0x732 JUMPI DUP1 PUSH1 0x1F LT PUSH2 0x707 JUMPI PUSH2 0x100 DUP1 DUP4 SLOAD DIV MUL DUP4 MSTORE SWAP2 PUSH1 0x20 ADD SWAP2 PUSH2 0x732 JUMP JUMPDEST DUP3 ADD SWAP2 SWAP1 PUSH1 0x0 MSTORE PUSH1 0x20 PUSH1 0x0 KECCAK256 SWAP1 JUMPDEST DUP2 SLOAD DUP2 MSTORE SWAP1 PUSH1 0x1 ADD SWAP1 PUSH1 0x20 ADD DUP1 DUP4 GT PUSH2 0x715 JUMPI DUP3 SWAP1 SUB PUSH1 0x1F AND DUP3 ADD SWAP2 JUMPDEST POP POP POP POP POP DUP2 MSTORE PUSH1 0x20 ADD PUSH1 0x1 DUP3 ADD DUP1 SLOAD PUSH2 0x74B SWAP1 PUSH2 0x11F6 JUMP JUMPDEST DUP1 PUSH1 0x1F ADD PUSH1 0x20 DUP1 SWAP2 DIV MUL PUSH1 0x20 ADD PUSH1 0x40 MLOAD SWAP1 DUP2 ADD PUSH1 0x40 MSTORE DUP1 SWAP3 SWAP2 SWAP1 DUP2 DUP2 MSTORE PUSH1 0x20 ADD DUP3 DUP1 SLOAD PUSH2 0x777 SWAP1 PUSH2 0x11F6 JUMP JUMPDEST DUP1 ISZERO PUSH2 0x7C4 JUMPI DUP1 PUSH1 0x1F LT PUSH2 0x799 JUMPI PUSH2 0x100 DUP1 DUP4 SLOAD DIV MUL DUP4 MSTORE SWAP2 PUSH1 0x20 ADD SWAP2 PUSH2 0x7C4 JUMP JUMPDEST DUP3 ADD SWAP2 SWAP1 PUSH1 0x0 MSTORE PUSH1 0x20 PUSH1 0x0 KECCAK256 SWAP1 JUMPDEST DUP2 SLOAD DUP2 MSTORE SWAP1 PUSH1 0x1 ADD SWAP1 PUSH1 0x20 ADD DUP1 DUP4 GT PUSH2 0x7A7 JUMPI DUP3 SWAP1 SUB PUSH1 0x1F AND DUP3 ADD SWAP2 JUMPDEST POP POP POP POP POP DUP2 MSTORE PUSH1 0x20 ADD PUSH1 0x2 DUP3 ADD DUP1 SLOAD PUSH2 0x7DD SWAP1 PUSH2 0x11F6 JUMP JUMPDEST DUP1 PUSH1 0x1F ADD PUSH1 0x20 DUP1 SWAP2 DIV MUL PUSH1 0x20 ADD PUSH1 0x40 MLOAD SWAP1 DUP2 ADD PUSH1 0x40 MSTORE DUP1 SWAP3 SWAP2 SWAP1 DUP2 DUP2 MSTORE PUSH1 0x20 ADD DUP3 DUP1 SLOAD PUSH2 0x809 SWAP1 PUSH2 0x11F6 JUMP JUMPDEST DUP1 ISZERO PUSH2 0x856 JUMPI DUP1 PUSH1 0x1F LT PUSH2 0x82B JUMPI PUSH2 0x100 DUP1 DUP4 SLOAD DIV MUL DUP4 MSTORE SWAP2 PUSH1 0x20 ADD SWAP2 PUSH2 0x856 JUMP JUMPDEST DUP3 ADD SWAP2 SWAP1 PUSH1 0x0 MSTORE PUSH1 0x20 PUSH1 0x0 KECCAK256 SWAP1 JUMPDEST DUP2 SLOAD DUP2 MSTORE SWAP1 PUSH1 0x1 ADD SWAP1 PUSH1 0x20 ADD DUP1 DUP4 GT PUSH2 0x839 JUMPI DUP3 SWAP1 SUB PUSH1 0x1F AND DUP3 ADD SWAP2 JUMPDEST POP POP POP POP POP DUP2 MSTORE PUSH1 0x20 ADD PUSH1 0x3 DUP3 ADD SLOAD DUP2 MSTORE PUSH1 0x20 ADD PUSH1 0x4 DUP3 ADD DUP1 SLOAD PUSH2 0x879 SWAP1 PUSH2 0x11F6 JUMP JUMPDEST DUP1 PUSH1 0x1F ADD PUSH1 0x20 DUP1 SWAP2 DIV MUL PUSH1 0x20 ADD PUSH1 0x40 MLOAD SWAP1 DUP2 ADD PUSH1 0x40 MSTORE DUP1 SWAP3 SWAP2 SWAP1 DUP2 DUP2 MSTORE PUSH1 0x20 ADD DUP3 DUP1 SLOAD PUSH2 0x8A5 SWAP1 PUSH2 0x11F6 JUMP JUMPDEST DUP1 ISZERO PUSH2 0x8F2 JUMPI DUP1 PUSH1 0x1F LT PUSH2 0x8C7 JUMPI PUSH2 0x100 DUP1 DUP4 SLOAD DIV MUL DUP4 MSTORE SWAP2 PUSH1 0x20 ADD SWAP2 PUSH2 0x8F2 JUMP JUMPDEST DUP3 ADD SWAP2 SWAP1 PUSH1 0x0 MSTORE PUSH1 0x20 PUSH1 0x0 KECCAK256 SWAP1 JUMPDEST DUP2 SLOAD DUP2 MSTORE SWAP1 PUSH1 0x1 ADD SWAP1 PUSH1 0x20 ADD DUP1 DUP4 GT PUSH2 0x8D5 JUMPI DUP3 SWAP1 SUB PUSH1 0x1F AND DUP3 ADD SWAP2 JUMPDEST POP POP POP POP POP DUP2 MSTORE PUSH1 0x20 ADD PUSH1 0x5 DUP3 ADD PUSH1 0x40 MLOAD DUP1 PUSH1 0x60 ADD PUSH1 0x40 MSTORE SWAP1 DUP2 PUSH1 0x0 DUP3 ADD SLOAD DUP2 MSTORE PUSH1 0x20 ADD PUSH1 0x1 DUP3 ADD SLOAD DUP2 MSTORE PUSH1 0x20 ADD PUSH1 0x2 DUP3 ADD SLOAD DUP2 MSTORE POP POP DUP2 MSTORE PUSH1 0x20 ADD PUSH1 0x8 DUP3 ADD DUP1 SLOAD PUSH2 0x93D SWAP1 PUSH2 0x11F6 JUMP JUMPDEST DUP1 PUSH1 0x1F ADD PUSH1 0x20 DUP1 SWAP2 DIV MUL PUSH1 0x20 ADD PUSH1 0x40 MLOAD SWAP1 DUP2 ADD PUSH1 0x40 MSTORE DUP1 SWAP3 SWAP2 SWAP1 DUP2 DUP2 MSTORE PUSH1 0x20 ADD DUP3 DUP1 SLOAD PUSH2 0x969 SWAP1 PUSH2 0x11F6 JUMP JUMPDEST DUP1 ISZERO PUSH2 0x9B6 JUMPI DUP1 PUSH1 0x1F LT PUSH2 0x98B JUMPI PUSH2 0x100 DUP1 DUP4 SLOAD DIV MUL DUP4 MSTORE SWAP2 PUSH1 0x20 ADD SWAP2 PUSH2 0x9B6 JUMP JUMPDEST DUP3 ADD SWAP2 SWAP1 PUSH1 0x0 MSTORE PUSH1 0x20 PUSH1 0x0 KECCAK256 SWAP1 JUMPDEST DUP2 SLOAD DUP2 MSTORE SWAP1 PUSH1 0x1 ADD SWAP1 PUSH1 0x20 ADD DUP1 DUP4 GT PUSH2 0x999 JUMPI DUP3 SWAP1 SUB PUSH1 0x1F AND DUP3 ADD SWAP2 JUMPDEST POP POP POP POP POP DUP2 MSTORE POP POP SWAP1 POP SWAP1 JUMP JUMPDEST DUP3 DUP1 SLOAD PUSH2 0x9D0 SWAP1 PUSH2 0x11F6 JUMP JUMPDEST SWAP1 PUSH1 0x0 MSTORE PUSH1 0x20 PUSH1 0x0 KECCAK256 SWAP1 PUSH1 0x1F ADD PUSH1 0x20 SWAP1 DIV DUP2 ADD SWAP3 DUP3 PUSH2 0x9F2 JUMPI PUSH1 0x0 DUP6 SSTORE PUSH2 0xA39 JUMP JUMPDEST DUP3 PUSH1 0x1F LT PUSH2 0xA0B JUMPI DUP1 MLOAD PUSH1 0xFF NOT AND DUP4 DUP1 ADD OR DUP6 SSTORE PUSH2 0xA39 JUMP JUMPDEST DUP3 DUP1 ADD PUSH1 0x1 ADD DUP6 SSTORE DUP3 ISZERO PUSH2 0xA39 JUMPI SWAP2 DUP3 ADD JUMPDEST DUP3 DUP2 GT ISZERO PUSH2 0xA38 JUMPI DUP3 MLOAD DUP3 SSTORE SWAP2 PUSH1 0x20 ADD SWAP2 SWAP1 PUSH1 0x1 ADD SWAP1 PUSH2 0xA1D JUMP JUMPDEST JUMPDEST POP SWAP1 POP PUSH2 0xA46 SWAP2 SWAP1 PUSH2 0xA8D JUMP JUMPDEST POP SWAP1 JUMP JUMPDEST PUSH1 0x40 MLOAD DUP1 PUSH1 0xE0 ADD PUSH1 0x40 MSTORE DUP1 PUSH1 0x60 DUP2 MSTORE PUSH1 0x20 ADD PUSH1 0x60 DUP2 MSTORE PUSH1 0x20 ADD PUSH1 0x60 DUP2 MSTORE PUSH1 0x20 ADD PUSH1 0x0 DUP2 MSTORE PUSH1 0x20 ADD PUSH1 0x60 DUP2 MSTORE PUSH1 0x20 ADD PUSH2 0xA80 PUSH2 0xAAA JUMP JUMPDEST DUP2 MSTORE PUSH1 0x20 ADD PUSH1 0x60 DUP2 MSTORE POP SWAP1 JUMP JUMPDEST JUMPDEST DUP1 DUP3 GT ISZERO PUSH2 0xAA6 JUMPI PUSH1 0x0 DUP2 PUSH1 0x0 SWAP1 SSTORE POP PUSH1 0x1 ADD PUSH2 0xA8E JUMP JUMPDEST POP SWAP1 JUMP JUMPDEST PUSH1 0x40 MLOAD DUP1 PUSH1 0x60 ADD PUSH1 0x40 MSTORE DUP1 PUSH1 0x0 DUP2 MSTORE PUSH1 0x20 ADD PUSH1 0x0 DUP2 MSTORE PUSH1 0x20 ADD PUSH1 0x0 DUP2 MSTORE POP SWAP1 JUMP JUMPDEST PUSH1 0x0 PUSH1 0x40 MLOAD SWAP1 POP SWAP1 JUMP JUMPDEST PUSH1 0x0 DUP1 REVERT JUMPDEST PUSH1 0x0 DUP1 REVERT JUMPDEST PUSH1 0x0 PUSH20 0xFFFFFFFFFFFFFFFFFFFFFFFFFFFFFFFFFFFFFFFF DUP3 AND SWAP1 POP SWAP2 SWAP1 POP JUMP JUMPDEST PUSH1 0x0 PUSH2 0xB0A DUP3 PUSH2 0xADF JUMP JUMPDEST SWAP1 POP SWAP2 SWAP1 POP JUMP JUMPDEST PUSH2 0xB1A DUP2 PUSH2 0xAFF JUMP JUMPDEST DUP2 EQ PUSH2 0xB25 JUMPI PUSH1 0x0 DUP1 REVERT JUMPDEST POP JUMP JUMPDEST PUSH1 0x0 DUP2 CALLDATALOAD SWAP1 POP PUSH2 0xB37 DUP2 PUSH2 0xB11 JUMP JUMPDEST SWAP3 SWAP2 POP POP JUMP JUMPDEST PUSH1 0x0 PUSH1 0x20 DUP3 DUP5 SUB SLT ISZERO PUSH2 0xB53 JUMPI PUSH2 0xB52 PUSH2 0xAD5 JUMP JUMPDEST JUMPDEST PUSH1 0x0 PUSH2 0xB61 DUP5 DUP3 DUP6 ADD PUSH2 0xB28 JUMP JUMPDEST SWAP2 POP POP SWAP3 SWAP2 POP POP JUMP JUMPDEST PUSH1 0x0 DUP2 MLOAD SWAP1 POP SWAP2 SWAP1 POP JUMP JUMPDEST PUSH1 0x0 DUP3 DUP3 MSTORE PUSH1 0x20 DUP3 ADD SWAP1 POP SWAP3 SWAP2 POP POP JUMP JUMPDEST PUSH1 0x0 JUMPDEST DUP4 DUP2 LT ISZERO PUSH2 0xBA4 JUMPI DUP1 DUP3 ADD MLOAD DUP2 DUP5 ADD MSTORE PUSH1 0x20 DUP2 ADD SWAP1 POP PUSH2 0xB89 JUMP JUMPDEST DUP4 DUP2 GT ISZERO PUSH2 0xBB3 JUMPI PUSH1 0x0 DUP5 DUP5 ADD MSTORE JUMPDEST POP POP POP POP JUMP JUMPDEST PUSH1 0x0 PUSH1 0x1F NOT PUSH1 0x1F DUP4 ADD AND SWAP1 POP SWAP2 SWAP1 POP JUMP JUMPDEST PUSH1 0x0 PUSH2 0xBD5 DUP3 PUSH2 0xB6A JUMP JUMPDEST PUSH2 0xBDF DUP2 DUP6 PUSH2 0xB75 JUMP JUMPDEST SWAP4 POP PUSH2 0xBEF DUP2 DUP6 PUSH1 0x20 DUP7 ADD PUSH2 0xB86 JUMP JUMPDEST PUSH2 0xBF8 DUP2 PUSH2 0xBB9 JUMP JUMPDEST DUP5 ADD SWAP2 POP POP SWAP3 SWAP2 POP POP JUMP JUMPDEST PUSH1 0x0 DUP2 SWAP1 POP SWAP2 SWAP1 POP JUMP JUMPDEST PUSH2 0xC16 DUP2 PUSH2 0xC03 JUMP JUMPDEST DUP3 MSTORE POP POP JUMP JUMPDEST PUSH2 0xC25 DUP2 PUSH2 0xC03 JUMP JUMPDEST DUP3 MSTORE POP POP JUMP JUMPDEST PUSH1 0x60 DUP3 ADD PUSH1 0x0 DUP3 ADD MLOAD PUSH2 0xC41 PUSH1 0x0 DUP6 ADD DUP3 PUSH2 0xC1C JUMP JUMPDEST POP PUSH1 0x20 DUP3 ADD MLOAD PUSH2 0xC54 PUSH1 0x20 DUP6 ADD DUP3 PUSH2 0xC1C JUMP JUMPDEST POP PUSH1 0x40 DUP3 ADD MLOAD PUSH2 0xC67 PUSH1 0x40 DUP6 ADD DUP3 PUSH2 0xC1C JUMP JUMPDEST POP POP POP POP JUMP JUMPDEST PUSH1 0x0 PUSH2 0x120 DUP3 ADD SWAP1 POP DUP2 DUP2 SUB PUSH1 0x0 DUP4 ADD MSTORE PUSH2 0xC88 DUP2 DUP11 PUSH2 0xBCA JUMP JUMPDEST SWAP1 POP DUP2 DUP2 SUB PUSH1 0x20 DUP4 ADD MSTORE PUSH2 0xC9C DUP2 DUP10 PUSH2 0xBCA JUMP JUMPDEST SWAP1 POP DUP2 DUP2 SUB PUSH1 0x40 DUP4 ADD MSTORE PUSH2 0xCB0 DUP2 DUP9 PUSH2 0xBCA JUMP JUMPDEST SWAP1 POP PUSH2 0xCBF PUSH1 0x60 DUP4 ADD DUP8 PUSH2 0xC0D JUMP JUMPDEST DUP2 DUP2 SUB PUSH1 0x80 DUP4 ADD MSTORE PUSH2 0xCD1 DUP2 DUP7 PUSH2 0xBCA JUMP JUMPDEST SWAP1 POP PUSH2 0xCE0 PUSH1 0xA0 DUP4 ADD DUP6 PUSH2 0xC2B JUMP JUMPDEST DUP2 DUP2 SUB PUSH2 0x100 DUP4 ADD MSTORE PUSH2 0xCF3 DUP2 DUP5 PUSH2 0xBCA JUMP JUMPDEST SWAP1 POP SWAP9 SWAP8 POP POP POP POP POP POP POP POP JUMP JUMPDEST PUSH1 0x0 DUP1 REVERT JUMPDEST PUSH1 0x0 DUP1 REVERT JUMPDEST PUSH32 0x4E487B7100000000000000000000000000000000000000000000000000000000 PUSH1 0x0 MSTORE PUSH1 0x41 PUSH1 0x4 MSTORE PUSH1 0x24 PUSH1 0x0 REVERT JUMPDEST PUSH2 0xD43 DUP3 PUSH2 0xBB9 JUMP JUMPDEST DUP2 ADD DUP2 DUP2 LT PUSH8 0xFFFFFFFFFFFFFFFF DUP3 GT OR ISZERO PUSH2 0xD62 JUMPI PUSH2 0xD61 PUSH2 0xD0B JUMP JUMPDEST JUMPDEST DUP1 PUSH1 0x40 MSTORE POP POP POP JUMP JUMPDEST PUSH1 0x0 PUSH2 0xD75 PUSH2 0xACB JUMP JUMPDEST SWAP1 POP PUSH2 0xD81 DUP3 DUP3 PUSH2 0xD3A JUMP JUMPDEST SWAP2 SWAP1 POP JUMP JUMPDEST PUSH1 0x0 PUSH8 0xFFFFFFFFFFFFFFFF DUP3 GT ISZERO PUSH2 0xDA1 JUMPI PUSH2 0xDA0 PUSH2 0xD0B JUMP JUMPDEST JUMPDEST PUSH2 0xDAA DUP3 PUSH2 0xBB9 JUMP JUMPDEST SWAP1 POP PUSH1 0x20 DUP2 ADD SWAP1 POP SWAP2 SWAP1 POP JUMP JUMPDEST DUP3 DUP2 DUP4 CALLDATACOPY PUSH1 0x0 DUP4 DUP4 ADD MSTORE POP POP POP JUMP JUMPDEST PUSH1 0x0 PUSH2 0xDD9 PUSH2 0xDD4 DUP5 PUSH2 0xD86 JUMP JUMPDEST PUSH2 0xD6B JUMP JUMPDEST SWAP1 POP DUP3 DUP2 MSTORE PUSH1 0x20 DUP2 ADD DUP5 DUP5 DUP5 ADD GT ISZERO PUSH2 0xDF5 JUMPI PUSH2 0xDF4 PUSH2 0xD06 JUMP JUMPDEST JUMPDEST PUSH2 0xE00 DUP5 DUP3 DUP6 PUSH2 0xDB7 JUMP JUMPDEST POP SWAP4 SWAP3 POP POP POP JUMP JUMPDEST PUSH1 0x0 DUP3 PUSH1 0x1F DUP4 ADD SLT PUSH2 0xE1D JUMPI PUSH2 0xE1C PUSH2 0xD01 JUMP JUMPDEST JUMPDEST DUP2 CALLDATALOAD PUSH2 0xE2D DUP5 DUP3 PUSH1 0x20 DUP7 ADD PUSH2 0xDC6 JUMP JUMPDEST SWAP2 POP POP SWAP3 SWAP2 POP POP JUMP JUMPDEST PUSH2 0xE3F DUP2 PUSH2 0xC03 JUMP JUMPDEST DUP2 EQ PUSH2 0xE4A JUMPI PUSH1 0x0 DUP1 REVERT JUMPDEST POP JUMP JUMPDEST PUSH1 0x0 DUP2 CALLDATALOAD SWAP1 POP PUSH2 0xE5C DUP2 PUSH2 0xE36 JUMP JUMPDEST SWAP3 SWAP2 POP POP JUMP JUMPDEST PUSH1 0x0 DUP1 PUSH1 0x0 DUP1 PUSH1 0x0 DUP1 PUSH1 0x0 DUP1 PUSH1 0x0 PUSH2 0x120 DUP11 DUP13 SUB SLT ISZERO PUSH2 0xE85 JUMPI PUSH2 0xE84 PUSH2 0xAD5 JUMP JUMPDEST JUMPDEST PUSH1 0x0 DUP11 ADD CALLDATALOAD PUSH8 0xFFFFFFFFFFFFFFFF DUP2 GT ISZERO PUSH2 0xEA3 JUMPI PUSH2 0xEA2 PUSH2 0xADA JUMP JUMPDEST JUMPDEST PUSH2 0xEAF DUP13 DUP3 DUP14 ADD PUSH2 0xE08 JUMP JUMPDEST SWAP10 POP POP PUSH1 0x20 DUP11 ADD CALLDATALOAD PUSH8 0xFFFFFFFFFFFFFFFF DUP2 GT ISZERO PUSH2 0xED0 JUMPI PUSH2 0xECF PUSH2 0xADA JUMP JUMPDEST JUMPDEST PUSH2 0xEDC DUP13 DUP3 DUP14 ADD PUSH2 0xE08 JUMP JUMPDEST SWAP9 POP POP PUSH1 0x40 DUP11 ADD CALLDATALOAD PUSH8 0xFFFFFFFFFFFFFFFF DUP2 GT ISZERO PUSH2 0xEFD JUMPI PUSH2 0xEFC PUSH2 0xADA JUMP JUMPDEST JUMPDEST PUSH2 0xF09 DUP13 DUP3 DUP14 ADD PUSH2 0xE08 JUMP JUMPDEST SWAP8 POP POP PUSH1 0x60 PUSH2 0xF1A DUP13 DUP3 DUP14 ADD PUSH2 0xE4D JUMP JUMPDEST SWAP7 POP POP PUSH1 0x80 DUP11 ADD CALLDATALOAD PUSH8 0xFFFFFFFFFFFFFFFF DUP2 GT ISZERO PUSH2 0xF3B JUMPI PUSH2 0xF3A PUSH2 0xADA JUMP JUMPDEST JUMPDEST PUSH2 0xF47 DUP13 DUP3 DUP14 ADD PUSH2 0xE08 JUMP JUMPDEST SWAP6 POP POP PUSH1 0xA0 PUSH2 0xF58 DUP13 DUP3 DUP14 ADD PUSH2 0xE4D JUMP JUMPDEST SWAP5 POP POP PUSH1 0xC0 PUSH2 0xF69 DUP13 DUP3 DUP14 ADD PUSH2 0xE4D JUMP JUMPDEST SWAP4 POP POP PUSH1 0xE0 PUSH2 0xF7A DUP13 DUP3 DUP14 ADD PUSH2 0xE4D JUMP JUMPDEST SWAP3 POP POP PUSH2 0x100 DUP11 ADD CALLDATALOAD PUSH8 0xFFFFFFFFFFFFFFFF DUP2 GT ISZERO PUSH2 0xF9C JUMPI PUSH2 0xF9B PUSH2 0xADA JUMP JUMPDEST JUMPDEST PUSH2 0xFA8 DUP13 DUP3 DUP14 ADD PUSH2 0xE08 JUMP JUMPDEST SWAP2 POP POP SWAP3 SWAP6 SWAP9 POP SWAP3 SWAP6 SWAP9 POP SWAP3 SWAP6 SWAP9 JUMP JUMPDEST PUSH1 0x0 DUP1 PUSH1 0x0 PUSH1 0x60 DUP5 DUP7 SUB SLT ISZERO PUSH2 0xFD1 JUMPI PUSH2 0xFD0 PUSH2 0xAD5 JUMP JUMPDEST JUMPDEST PUSH1 0x0 DUP5 ADD CALLDATALOAD PUSH8 0xFFFFFFFFFFFFFFFF DUP2 GT ISZERO PUSH2 0xFEF JUMPI PUSH2 0xFEE PUSH2 0xADA JUMP JUMPDEST JUMPDEST PUSH2 0xFFB DUP7 DUP3 DUP8 ADD PUSH2 0xE08 JUMP JUMPDEST SWAP4 POP POP PUSH1 0x20 DUP5 ADD CALLDATALOAD PUSH8 0xFFFFFFFFFFFFFFFF DUP2 GT ISZERO PUSH2 0x101C JUMPI PUSH2 0x101B PUSH2 0xADA JUMP JUMPDEST JUMPDEST PUSH2 0x1028 DUP7 DUP3 DUP8 ADD PUSH2 0xE08 JUMP JUMPDEST SWAP3 POP POP PUSH1 0x40 DUP5 ADD CALLDATALOAD PUSH8 0xFFFFFFFFFFFFFFFF DUP2 GT ISZERO PUSH2 0x1049 JUMPI PUSH2 0x1048 PUSH2 0xADA JUMP JUMPDEST JUMPDEST PUSH2 0x1055 DUP7 DUP3 DUP8 ADD PUSH2 0xE08 JUMP JUMPDEST SWAP2 POP POP SWAP3 POP SWAP3 POP SWAP3 JUMP JUMPDEST PUSH1 0x0 DUP3 DUP3 MSTORE PUSH1 0x20 DUP3 ADD SWAP1 POP SWAP3 SWAP2 POP POP JUMP JUMPDEST PUSH1 0x0 PUSH2 0x107B DUP3 PUSH2 0xB6A JUMP JUMPDEST PUSH2 0x1085 DUP2 DUP6 PUSH2 0x105F JUMP JUMPDEST SWAP4 POP PUSH2 0x1095 DUP2 DUP6 PUSH1 0x20 DUP7 ADD PUSH2 0xB86 JUMP JUMPDEST PUSH2 0x109E DUP2 PUSH2 0xBB9 JUMP JUMPDEST DUP5 ADD SWAP2 POP POP SWAP3 SWAP2 POP POP JUMP JUMPDEST PUSH1 0x60 DUP3 ADD PUSH1 0x0 DUP3 ADD MLOAD PUSH2 0x10BF PUSH1 0x0 DUP6 ADD DUP3 PUSH2 0xC1C JUMP JUMPDEST POP PUSH1 0x20 DUP3 ADD MLOAD PUSH2 0x10D2 PUSH1 0x20 DUP6 ADD DUP3 PUSH2 0xC1C JUMP JUMPDEST POP PUSH1 0x40 DUP3 ADD MLOAD PUSH2 0x10E5 PUSH1 0x40 DUP6 ADD DUP3 PUSH2 0xC1C JUMP JUMPDEST POP POP POP POP JUMP JUMPDEST PUSH1 0x0 PUSH2 0x120 DUP4 ADD PUSH1 0x0 DUP4 ADD MLOAD DUP5 DUP3 SUB PUSH1 0x0 DUP7 ADD MSTORE PUSH2 0x1109 DUP3 DUP3 PUSH2 0x1070 JUMP JUMPDEST SWAP2 POP POP PUSH1 0x20 DUP4 ADD MLOAD DUP5 DUP3 SUB PUSH1 0x20 DUP7 ADD MSTORE PUSH2 0x1123 DUP3 DUP3 PUSH2 0x1070 JUMP JUMPDEST SWAP2 POP POP PUSH1 0x40 DUP4 ADD MLOAD DUP5 DUP3 SUB PUSH1 0x40 DUP7 ADD MSTORE PUSH2 0x113D DUP3 DUP3 PUSH2 0x1070 JUMP JUMPDEST SWAP2 POP POP PUSH1 0x60 DUP4 ADD MLOAD PUSH2 0x1152 PUSH1 0x60 DUP7 ADD DUP3 PUSH2 0xC1C JUMP JUMPDEST POP PUSH1 0x80 DUP4 ADD MLOAD DUP5 DUP3 SUB PUSH1 0x80 DUP7 ADD MSTORE PUSH2 0x116A DUP3 DUP3 PUSH2 0x1070 JUMP JUMPDEST SWAP2 POP POP PUSH1 0xA0 DUP4 ADD MLOAD PUSH2 0x117F PUSH1 0xA0 DUP7 ADD DUP3 PUSH2 0x10A9 JUMP JUMPDEST POP PUSH1 0xC0 DUP4 ADD MLOAD DUP5 DUP3 SUB PUSH2 0x100 DUP7 ADD MSTORE PUSH2 0x1198 DUP3 DUP3 PUSH2 0x1070 JUMP JUMPDEST SWAP2 POP POP DUP1 SWAP2 POP POP SWAP3 SWAP2 POP POP JUMP JUMPDEST PUSH1 0x0 PUSH1 0x20 DUP3 ADD SWAP1 POP DUP2 DUP2 SUB PUSH1 0x0 DUP4 ADD MSTORE PUSH2 0x11BF DUP2 DUP5 PUSH2 0x10EB JUMP JUMPDEST SWAP1 POP SWAP3 SWAP2 POP POP JUMP JUMPDEST PUSH32 0x4E487B7100000000000000000000000000000000000000000000000000000000 PUSH1 0x0 MSTORE PUSH1 0x22 PUSH1 0x4 MSTORE PUSH1 0x24 PUSH1 0x0 REVERT JUMPDEST PUSH1 0x0 PUSH1 0x2 DUP3 DIV SWAP1 POP PUSH1 0x1 DUP3 AND DUP1 PUSH2 0x120E JUMPI PUSH1 0x7F DUP3 AND SWAP2 POP JUMPDEST PUSH1 0x20 DUP3 LT DUP2 EQ ISZERO PUSH2 0x1222 JUMPI PUSH2 0x1221 PUSH2 0x11C7 JUMP JUMPDEST JUMPDEST POP SWAP2 SWAP1 POP JUMP INVALID LOG2 PUSH5 0x6970667358 0x22 SLT KECCAK256 0xC0 0xB9 DUP12 0xBB SWAP10 0xB8 ISZERO SWAP8 MSTORE 0x5D PUSH1 0xAC 0x1E GAS ADDMOD OR 0xC5 0xD5 SELFDESTRUCT PUSH20 0x4E5AF813BC233920B55481D764736F6C63430008 MULMOD STOP CALLER "},"methodIdentifiers":{"createPassport(string,string,string,uint256,string,uint256,uint256,uint256,string)":"849cf362","updatePassport(string,string,string)":"9d22bc69","user(address)":"81e7e20e","viewPassport()":"bf09626a"}}}}}