{
  "_format": "hh-sol-artifact-1",
  "contractName": "Passport",
  "sourceName": "contracts/Passport.sol",
  "abi": [
    {
      "inputs": [
        {
          "internalType": "string",
          "name": "_firstName",
          "type": "string"
        },
        {
          "internalType": "string",
          "name": "_lastName",
          "type": "string"
        },
        {
          "internalType": "string",
          "name": "_gender",
          "type": "string"
        },
        {
          "internalType": "uint256",
          "name": "_age",
          "type": "uint256"
        },
        {
          "internalType": "string",
          "name": "_nationality",
          "type": "string"
        },
        {
          "internalType": "uint256",
          "name": "_byear",
          "type": "uint256"
        },
        {
          "internalType": "uint256",
          "name": "_bmonth",
          "type": "uint256"
        },
        {
          "internalType": "uint256",
          "name": "_bday",
          "type": "uint256"
        },
        {
          "internalType": "string",
          "name": "_country",
          "type": "string"
        }
      ],
      "name": "createPassport",
      "outputs": [],
      "stateMutability": "nonpayable",
      "type": "function"
    },
    {
      "inputs": [],
      "name": "seePassport",
      "outputs": [
        {
          "components": [
            {
              "internalType": "string",
              "name": "firstName",
              "type": "string"
            },
            {
              "internalType": "string",
              "name": "lastName",
              "type": "string"
            },
            {
              "internalType": "string",
              "name": "gender",
              "type": "string"
            },
            {
              "internalType": "uint256",
              "name": "age",
              "type": "uint256"
            },
            {
              "internalType": "string",
              "name": "nationality",
              "type": "string"
            },
            {
              "components": [
                {
                  "internalType": "uint256",
                  "name": "day",
                  "type": "uint256"
                },
                {
                  "internalType": "uint256",
                  "name": "month",
                  "type": "uint256"
                },
                {
                  "internalType": "uint256",
                  "name": "year",
                  "type": "uint256"
                }
              ],
              "internalType": "struct Passport.Year",
              "name": "dob",
              "type": "tuple"
            },
            {
              "internalType": "string",
              "name": "country",
              "type": "string"
            }
          ],
          "internalType": "struct Passport.Person",
          "name": "",
          "type": "tuple"
        }
      ],
      "stateMutability": "view",
      "type": "function"
    },
    {
      "inputs": [
        {
          "internalType": "string",
          "name": "_firstName",
          "type": "string"
        },
        {
          "internalType": "string",
          "name": "_nationality",
          "type": "string"
        },
        {
          "internalType": "uint256",
          "name": "_age",
          "type": "uint256"
        }
      ],
      "name": "updatePassport",
      "outputs": [],
      "stateMutability": "nonpayable",
      "type": "function"
    },
    {
      "inputs": [
        {
          "internalType": "address",
          "name": "",
          "type": "address"
        }
      ],
      "name": "user",
      "outputs": [
        {
          "internalType": "string",
          "name": "firstName",
          "type": "string"
        },
        {
          "internalType": "string",
          "name": "lastName",
          "type": "string"
        },
        {
          "internalType": "string",
          "name": "gender",
          "type": "string"
        },
        {
          "internalType": "uint256",
          "name": "age",
          "type": "uint256"
        },
        {
          "internalType": "string",
          "name": "nationality",
          "type": "string"
        },
        {
          "components": [
            {
              "internalType": "uint256",
              "name": "day",
              "type": "uint256"
            },
            {
              "internalType": "uint256",
              "name": "month",
              "type": "uint256"
            },
            {
              "internalType": "uint256",
              "name": "year",
              "type": "uint256"
            }
          ],
          "internalType": "struct Passport.Year",
          "name": "dob",
          "type": "tuple"
        },
        {
          "internalType": "string",
          "name": "country",
          "type": "string"
        }
      ],
      "stateMutability": "view",
      "type": "function"
    }
  ],
  "bytecode": "0x6080604052336000806101000a81548173ffffffffffffffffffffffffffffffffffffffff021916908373ffffffffffffffffffffffffffffffffffffffff16021790555034801561005057600080fd5b50611232806100606000396000f3fe608060405234801561001057600080fd5b506004361061004c5760003560e01c80635541838214610051578063799e830e1461006f57806381e7e20e1461008b578063849cf362146100c1575b600080fd5b6100596100dd565b6040516100669190610c69565b60405180910390f35b61008960048036038101906100849190610e00565b61044a565b005b6100a560048036038101906100a09190610ee9565b610544565b6040516100b89796959493929190610fb1565b60405180910390f35b6100db60048036038101906100d69190611045565b610856565b005b6100e56109b4565b600160003373ffffffffffffffffffffffffffffffffffffffff1673ffffffffffffffffffffffffffffffffffffffff1681526020019081526020016000206040518060e001604052908160008201805461013f906111ca565b80601f016020809104026020016040519081016040528092919081815260200182805461016b906111ca565b80156101b85780601f1061018d576101008083540402835291602001916101b8565b820191906000526020600020905b81548152906001019060200180831161019b57829003601f168201915b505050505081526020016001820180546101d1906111ca565b80601f01602080910402602001604051908101604052809291908181526020018280546101fd906111ca565b801561024a5780601f1061021f5761010080835404028352916020019161024a565b820191906000526020600020905b81548152906001019060200180831161022d57829003601f168201915b50505050508152602001600282018054610263906111ca565b80601f016020809104026020016040519081016040528092919081815260200182805461028f906111ca565b80156102dc5780601f106102b1576101008083540402835291602001916102dc565b820191906000526020600020905b8154815290600101906020018083116102bf57829003601f168201915b50505050508152602001600382015481526020016004820180546102ff906111ca565b80601f016020809104026020016040519081016040528092919081815260200182805461032b906111ca565b80156103785780601f1061034d57610100808354040283529160200191610378565b820191906000526020600020905b81548152906001019060200180831161035b57829003601f168201915b5050505050815260200160058201604051806060016040529081600082015481526020016001820154815260200160028201548152505081526020016008820180546103c3906111ca565b80601f01602080910402602001604051908101604052809291908181526020018280546103ef906111ca565b801561043c5780601f106104115761010080835404028352916020019161043c565b820191906000526020600020905b81548152906001019060200180831161041f57829003601f168201915b505050505081525050905090565b82600160003373ffffffffffffffffffffffffffffffffffffffff1673ffffffffffffffffffffffffffffffffffffffff16815260200190815260200160002060000190805190602001906104a09291906109f7565b5081600160003373ffffffffffffffffffffffffffffffffffffffff1673ffffffffffffffffffffffffffffffffffffffff16815260200190815260200160002060040190805190602001906104f79291906109f7565b5080600160003373ffffffffffffffffffffffffffffffffffffffff1673ffffffffffffffffffffffffffffffffffffffff16815260200190815260200160002060030181905550505050565b6001602052806000526040600020600091509050806000018054610567906111ca565b80601f0160208091040260200160405190810160405280929190818152602001828054610593906111ca565b80156105e05780601f106105b5576101008083540402835291602001916105e0565b820191906000526020600020905b8154815290600101906020018083116105c357829003601f168201915b5050505050908060010180546105f5906111ca565b80601f0160208091040260200160405190810160405280929190818152602001828054610621906111ca565b801561066e5780601f106106435761010080835404028352916020019161066e565b820191906000526020600020905b81548152906001019060200180831161065157829003601f168201915b505050505090806002018054610683906111ca565b80601f01602080910402602001604051908101604052809291908181526020018280546106af906111ca565b80156106fc5780601f106106d1576101008083540402835291602001916106fc565b820191906000526020600020905b8154815290600101906020018083116106df57829003601f168201915b505050505090806003015490806004018054610717906111ca565b80601f0160208091040260200160405190810160405280929190818152602001828054610743906111ca565b80156107905780601f1061076557610100808354040283529160200191610790565b820191906000526020600020905b81548152906001019060200180831161077357829003601f168201915b505050505090806005016040518060600160405290816000820154815260200160018201548152602001600282015481525050908060080180546107d3906111ca565b80601f01602080910402602001604051908101604052809291908181526020018280546107ff906111ca565b801561084c5780601f106108215761010080835404028352916020019161084c565b820191906000526020600020905b81548152906001019060200180831161082f57829003601f168201915b5050505050905087565b6040518060e001604052808a8152602001898152602001888152602001878152602001868152602001604051806060016040528085815260200186815260200187815250815260200182815250600160003373ffffffffffffffffffffffffffffffffffffffff1673ffffffffffffffffffffffffffffffffffffffff16815260200190815260200160002060008201518160000190805190602001906108fe9291906109f7565b50602082015181600101908051906020019061091b9291906109f7565b5060408201518160020190805190602001906109389291906109f7565b5060608201518160030155608082015181600401908051906020019061095f9291906109f7565b5060a082015181600501600082015181600001556020820151816001015560408201518160020155505060c08201518160080190805190602001906109a59291906109f7565b50905050505050505050505050565b6040518060e0016040528060608152602001606081526020016060815260200160008152602001606081526020016109ea610a7d565b8152602001606081525090565b828054610a03906111ca565b90600052602060002090601f016020900481019282610a255760008555610a6c565b82601f10610a3e57805160ff1916838001178555610a6c565b82800160010185558215610a6c579182015b82811115610a6b578251825591602001919060010190610a50565b5b509050610a799190610a9e565b5090565b60405180606001604052806000815260200160008152602001600081525090565b5b80821115610ab7576000816000905550600101610a9f565b5090565b600081519050919050565b600082825260208201905092915050565b60005b83811015610af5578082015181840152602081019050610ada565b83811115610b04576000848401525b50505050565b6000601f19601f8301169050919050565b6000610b2682610abb565b610b308185610ac6565b9350610b40818560208601610ad7565b610b4981610b0a565b840191505092915050565b6000819050919050565b610b6781610b54565b82525050565b606082016000820151610b836000850182610b5e565b506020820151610b966020850182610b5e565b506040820151610ba96040850182610b5e565b50505050565b6000610120830160008301518482036000860152610bcd8282610b1b565b91505060208301518482036020860152610be78282610b1b565b91505060408301518482036040860152610c018282610b1b565b9150506060830151610c166060860182610b5e565b5060808301518482036080860152610c2e8282610b1b565b91505060a0830151610c4360a0860182610b6d565b5060c0830151848203610100860152610c5c8282610b1b565b9150508091505092915050565b60006020820190508181036000830152610c838184610baf565b905092915050565b6000604051905090565b600080fd5b600080fd5b600080fd5b600080fd5b7f4e487b7100000000000000000000000000000000000000000000000000000000600052604160045260246000fd5b610ce182610b0a565b810181811067ffffffffffffffff82111715610d0057610cff610ca9565b5b80604052505050565b6000610d13610c8b565b9050610d1f8282610cd8565b919050565b600067ffffffffffffffff821115610d3f57610d3e610ca9565b5b610d4882610b0a565b9050602081019050919050565b82818337600083830152505050565b6000610d77610d7284610d24565b610d09565b905082815260208101848484011115610d9357610d92610ca4565b5b610d9e848285610d55565b509392505050565b600082601f830112610dbb57610dba610c9f565b5b8135610dcb848260208601610d64565b91505092915050565b610ddd81610b54565b8114610de857600080fd5b50565b600081359050610dfa81610dd4565b92915050565b600080600060608486031215610e1957610e18610c95565b5b600084013567ffffffffffffffff811115610e3757610e36610c9a565b5b610e4386828701610da6565b935050602084013567ffffffffffffffff811115610e6457610e63610c9a565b5b610e7086828701610da6565b9250506040610e8186828701610deb565b9150509250925092565b600073ffffffffffffffffffffffffffffffffffffffff82169050919050565b6000610eb682610e8b565b9050919050565b610ec681610eab565b8114610ed157600080fd5b50565b600081359050610ee381610ebd565b92915050565b600060208284031215610eff57610efe610c95565b5b6000610f0d84828501610ed4565b91505092915050565b600082825260208201905092915050565b6000610f3282610abb565b610f3c8185610f16565b9350610f4c818560208601610ad7565b610f5581610b0a565b840191505092915050565b610f6981610b54565b82525050565b606082016000820151610f856000850182610b5e565b506020820151610f986020850182610b5e565b506040820151610fab6040850182610b5e565b50505050565b6000610120820190508181036000830152610fcc818a610f27565b90508181036020830152610fe08189610f27565b90508181036040830152610ff48188610f27565b90506110036060830187610f60565b81810360808301526110158186610f27565b905061102460a0830185610f6f565b8181036101008301526110378184610f27565b905098975050505050505050565b60008060008060008060008060006101208a8c03121561106857611067610c95565b5b60008a013567ffffffffffffffff81111561108657611085610c9a565b5b6110928c828d01610da6565b99505060208a013567ffffffffffffffff8111156110b3576110b2610c9a565b5b6110bf8c828d01610da6565b98505060408a013567ffffffffffffffff8111156110e0576110df610c9a565b5b6110ec8c828d01610da6565b97505060606110fd8c828d01610deb565b96505060808a013567ffffffffffffffff81111561111e5761111d610c9a565b5b61112a8c828d01610da6565b95505060a061113b8c828d01610deb565b94505060c061114c8c828d01610deb565b93505060e061115d8c828d01610deb565b9250506101008a013567ffffffffffffffff81111561117f5761117e610c9a565b5b61118b8c828d01610da6565b9150509295985092959850929598565b7f4e487b7100000000000000000000000000000000000000000000000000000000600052602260045260246000fd5b600060028204905060018216806111e257607f821691505b602082108114156111f6576111f561119b565b5b5091905056fea2646970667358221220030c4939fb7d36462ef03b3829847e40fd89a59c8c8f3ccbf7f6c1dd762b20c764736f6c63430008090033",
  "linkReferences": {},
  "deployedLinkReferences": {}
}