{
  "_format": "hh-sol-artifact-1",
  "contractName": "Passport",
  "sourceName": "contracts/Passport.sol",
  "abi": [
    {
      "inputs": [],
      "stateMutability": "nonpayable",
      "type": "constructor"
    },
    {
      "inputs": [],
      "name": "ADMIN",
      "outputs": [
        {
          "internalType": "address",
          "name": "",
          "type": "address"
        }
      ],
      "stateMutability": "view",
      "type": "function"
    },
    {
      "inputs": [
        {
          "internalType": "address",
          "name": "userId",
          "type": "address"
        }
      ],
      "name": "adminViewPassport",
      "outputs": [
        {
          "components": [
            {
              "internalType": "string",
              "name": "firstName",
              "type": "string"
            },
            {
              "internalType": "string",
              "name": "lastName",
              "type": "string"
            },
            {
              "internalType": "string",
              "name": "gender",
              "type": "string"
            },
            {
              "internalType": "uint256",
              "name": "age",
              "type": "uint256"
            },
            {
              "internalType": "string",
              "name": "nationality",
              "type": "string"
            },
            {
              "components": [
                {
                  "internalType": "uint256",
                  "name": "day",
                  "type": "uint256"
                },
                {
                  "internalType": "uint256",
                  "name": "month",
                  "type": "uint256"
                },
                {
                  "internalType": "uint256",
                  "name": "year",
                  "type": "uint256"
                }
              ],
              "internalType": "struct Passport.Year",
              "name": "dob",
              "type": "tuple"
            },
            {
              "internalType": "string",
              "name": "country",
              "type": "string"
            }
          ],
          "internalType": "struct Passport.Person",
          "name": "",
          "type": "tuple"
        }
      ],
      "stateMutability": "view",
      "type": "function"
    },
    {
      "inputs": [
        {
          "internalType": "string",
          "name": "_firstName",
          "type": "string"
        },
        {
          "internalType": "string",
          "name": "_lastName",
          "type": "string"
        },
        {
          "internalType": "string",
          "name": "_gender",
          "type": "string"
        },
        {
          "internalType": "uint256",
          "name": "_age",
          "type": "uint256"
        },
        {
          "internalType": "string",
          "name": "_nationality",
          "type": "string"
        },
        {
          "internalType": "uint256",
          "name": "_byear",
          "type": "uint256"
        },
        {
          "internalType": "uint256",
          "name": "_bmonth",
          "type": "uint256"
        },
        {
          "internalType": "uint256",
          "name": "_bday",
          "type": "uint256"
        },
        {
          "internalType": "string",
          "name": "_country",
          "type": "string"
        }
      ],
      "name": "createPassport",
      "outputs": [],
      "stateMutability": "nonpayable",
      "type": "function"
    },
    {
      "inputs": [
        {
          "internalType": "string",
          "name": "_firstName",
          "type": "string"
        },
        {
          "internalType": "string",
          "name": "_lastName",
          "type": "string"
        },
        {
          "internalType": "string",
          "name": "_gender",
          "type": "string"
        }
      ],
      "name": "updatePassport",
      "outputs": [],
      "stateMutability": "nonpayable",
      "type": "function"
    },
    {
      "inputs": [
        {
          "internalType": "address",
          "name": "",
          "type": "address"
        }
      ],
      "name": "user",
      "outputs": [
        {
          "internalType": "string",
          "name": "firstName",
          "type": "string"
        },
        {
          "internalType": "string",
          "name": "lastName",
          "type": "string"
        },
        {
          "internalType": "string",
          "name": "gender",
          "type": "string"
        },
        {
          "internalType": "uint256",
          "name": "age",
          "type": "uint256"
        },
        {
          "internalType": "string",
          "name": "nationality",
          "type": "string"
        },
        {
          "components": [
            {
              "internalType": "uint256",
              "name": "day",
              "type": "uint256"
            },
            {
              "internalType": "uint256",
              "name": "month",
              "type": "uint256"
            },
            {
              "internalType": "uint256",
              "name": "year",
              "type": "uint256"
            }
          ],
          "internalType": "struct Passport.Year",
          "name": "dob",
          "type": "tuple"
        },
        {
          "internalType": "string",
          "name": "country",
          "type": "string"
        }
      ],
      "stateMutability": "view",
      "type": "function"
    },
    {
      "inputs": [],
      "name": "userViewPassport",
      "outputs": [
        {
          "components": [
            {
              "internalType": "string",
              "name": "firstName",
              "type": "string"
            },
            {
              "internalType": "string",
              "name": "lastName",
              "type": "string"
            },
            {
              "internalType": "string",
              "name": "gender",
              "type": "string"
            },
            {
              "internalType": "uint256",
              "name": "age",
              "type": "uint256"
            },
            {
              "internalType": "string",
              "name": "nationality",
              "type": "string"
            },
            {
              "components": [
                {
                  "internalType": "uint256",
                  "name": "day",
                  "type": "uint256"
                },
                {
                  "internalType": "uint256",
                  "name": "month",
                  "type": "uint256"
                },
                {
                  "internalType": "uint256",
                  "name": "year",
                  "type": "uint256"
                }
              ],
              "internalType": "struct Passport.Year",
              "name": "dob",
              "type": "tuple"
            },
            {
              "internalType": "string",
              "name": "country",
              "type": "string"
            }
          ],
          "internalType": "struct Passport.Person",
          "name": "",
          "type": "tuple"
        }
      ],
      "stateMutability": "view",
      "type": "function"
    }
  ],
  "bytecode": "0x608060405234801561001057600080fd5b50336000806101000a81548173ffffffffffffffffffffffffffffffffffffffff021916908373ffffffffffffffffffffffffffffffffffffffff16021790555061179f806100606000396000f3fe608060405234801561001057600080fd5b50600436106100625760003560e01c80632a0acc6a1461006757806375ee9f621461008557806381e7e20e146100a3578063849cf362146100d95780639d22bc69146100f5578063c4c3a72114610111575b600080fd5b61006f610141565b60405161007c9190610f91565b60405180910390f35b61008d610165565b60405161009a919061115a565b60405180910390f35b6100bd60048036038101906100b891906111bc565b6104d2565b6040516100d09796959493929190611284565b60405180910390f35b6100f360048036038101906100ee9190611479565b6107e4565b005b61010f600480360381019061010a91906115cf565b610942565b005b61012b600480360381019061012691906111bc565b610a4c565b604051610138919061115a565b60405180910390f35b60008054906101000a900473ffffffffffffffffffffffffffffffffffffffff1681565b61016d610e49565b600160003373ffffffffffffffffffffffffffffffffffffffff1673ffffffffffffffffffffffffffffffffffffffff1681526020019081526020016000206040518060e00160405290816000820180546101c7906116a5565b80601f01602080910402602001604051908101604052809291908181526020018280546101f3906116a5565b80156102405780601f1061021557610100808354040283529160200191610240565b820191906000526020600020905b81548152906001019060200180831161022357829003601f168201915b50505050508152602001600182018054610259906116a5565b80601f0160208091040260200160405190810160405280929190818152602001828054610285906116a5565b80156102d25780601f106102a7576101008083540402835291602001916102d2565b820191906000526020600020905b8154815290600101906020018083116102b557829003601f168201915b505050505081526020016002820180546102eb906116a5565b80601f0160208091040260200160405190810160405280929190818152602001828054610317906116a5565b80156103645780601f1061033957610100808354040283529160200191610364565b820191906000526020600020905b81548152906001019060200180831161034757829003601f168201915b5050505050815260200160038201548152602001600482018054610387906116a5565b80601f01602080910402602001604051908101604052809291908181526020018280546103b3906116a5565b80156104005780601f106103d557610100808354040283529160200191610400565b820191906000526020600020905b8154815290600101906020018083116103e357829003601f168201915b50505050508152602001600582016040518060600160405290816000820154815260200160018201548152602001600282015481525050815260200160088201805461044b906116a5565b80601f0160208091040260200160405190810160405280929190818152602001828054610477906116a5565b80156104c45780601f10610499576101008083540402835291602001916104c4565b820191906000526020600020905b8154815290600101906020018083116104a757829003601f168201915b505050505081525050905090565b60016020528060005260406000206000915090508060000180546104f5906116a5565b80601f0160208091040260200160405190810160405280929190818152602001828054610521906116a5565b801561056e5780601f106105435761010080835404028352916020019161056e565b820191906000526020600020905b81548152906001019060200180831161055157829003601f168201915b505050505090806001018054610583906116a5565b80601f01602080910402602001604051908101604052809291908181526020018280546105af906116a5565b80156105fc5780601f106105d1576101008083540402835291602001916105fc565b820191906000526020600020905b8154815290600101906020018083116105df57829003601f168201915b505050505090806002018054610611906116a5565b80601f016020809104026020016040519081016040528092919081815260200182805461063d906116a5565b801561068a5780601f1061065f5761010080835404028352916020019161068a565b820191906000526020600020905b81548152906001019060200180831161066d57829003601f168201915b5050505050908060030154908060040180546106a5906116a5565b80601f01602080910402602001604051908101604052809291908181526020018280546106d1906116a5565b801561071e5780601f106106f35761010080835404028352916020019161071e565b820191906000526020600020905b81548152906001019060200180831161070157829003601f168201915b50505050509080600501604051806060016040529081600082015481526020016001820154815260200160028201548152505090806008018054610761906116a5565b80601f016020809104026020016040519081016040528092919081815260200182805461078d906116a5565b80156107da5780601f106107af576101008083540402835291602001916107da565b820191906000526020600020905b8154815290600101906020018083116107bd57829003601f168201915b5050505050905087565b6040518060e001604052808a8152602001898152602001888152602001878152602001868152602001604051806060016040528085815260200186815260200187815250815260200182815250600160003373ffffffffffffffffffffffffffffffffffffffff1673ffffffffffffffffffffffffffffffffffffffff168152602001908152602001600020600082015181600001908051906020019061088c929190610e8c565b5060208201518160010190805190602001906108a9929190610e8c565b5060408201518160020190805190602001906108c6929190610e8c565b506060820151816003015560808201518160040190805190602001906108ed929190610e8c565b5060a082015181600501600082015181600001556020820151816001015560408201518160020155505060c0820151816008019080519060200190610933929190610e8c565b50905050505050505050505050565b82600160003373ffffffffffffffffffffffffffffffffffffffff1673ffffffffffffffffffffffffffffffffffffffff1681526020019081526020016000206000019080519060200190610998929190610e8c565b5081600160003373ffffffffffffffffffffffffffffffffffffffff1673ffffffffffffffffffffffffffffffffffffffff16815260200190815260200160002060010190805190602001906109ef929190610e8c565b5080600160003373ffffffffffffffffffffffffffffffffffffffff1673ffffffffffffffffffffffffffffffffffffffff1681526020019081526020016000206002019080519060200190610a46929190610e8c565b50505050565b610a54610e49565b60008054906101000a900473ffffffffffffffffffffffffffffffffffffffff1673ffffffffffffffffffffffffffffffffffffffff163373ffffffffffffffffffffffffffffffffffffffff1614610ae2576040517f08c379a0000000000000000000000000000000000000000000000000000000008152600401610ad990611749565b60405180910390fd5b600160008373ffffffffffffffffffffffffffffffffffffffff1673ffffffffffffffffffffffffffffffffffffffff1681526020019081526020016000206040518060e0016040529081600082018054610b3c906116a5565b80601f0160208091040260200160405190810160405280929190818152602001828054610b68906116a5565b8015610bb55780601f10610b8a57610100808354040283529160200191610bb5565b820191906000526020600020905b815481529060010190602001808311610b9857829003601f168201915b50505050508152602001600182018054610bce906116a5565b80601f0160208091040260200160405190810160405280929190818152602001828054610bfa906116a5565b8015610c475780601f10610c1c57610100808354040283529160200191610c47565b820191906000526020600020905b815481529060010190602001808311610c2a57829003601f168201915b50505050508152602001600282018054610c60906116a5565b80601f0160208091040260200160405190810160405280929190818152602001828054610c8c906116a5565b8015610cd95780601f10610cae57610100808354040283529160200191610cd9565b820191906000526020600020905b815481529060010190602001808311610cbc57829003601f168201915b5050505050815260200160038201548152602001600482018054610cfc906116a5565b80601f0160208091040260200160405190810160405280929190818152602001828054610d28906116a5565b8015610d755780601f10610d4a57610100808354040283529160200191610d75565b820191906000526020600020905b815481529060010190602001808311610d5857829003601f168201915b505050505081526020016005820160405180606001604052908160008201548152602001600182015481526020016002820154815250508152602001600882018054610dc0906116a5565b80601f0160208091040260200160405190810160405280929190818152602001828054610dec906116a5565b8015610e395780601f10610e0e57610100808354040283529160200191610e39565b820191906000526020600020905b815481529060010190602001808311610e1c57829003601f168201915b5050505050815250509050919050565b6040518060e001604052806060815260200160608152602001606081526020016000815260200160608152602001610e7f610f12565b8152602001606081525090565b828054610e98906116a5565b90600052602060002090601f016020900481019282610eba5760008555610f01565b82601f10610ed357805160ff1916838001178555610f01565b82800160010185558215610f01579182015b82811115610f00578251825591602001919060010190610ee5565b5b509050610f0e9190610f33565b5090565b60405180606001604052806000815260200160008152602001600081525090565b5b80821115610f4c576000816000905550600101610f34565b5090565b600073ffffffffffffffffffffffffffffffffffffffff82169050919050565b6000610f7b82610f50565b9050919050565b610f8b81610f70565b82525050565b6000602082019050610fa66000830184610f82565b92915050565b600081519050919050565b600082825260208201905092915050565b60005b83811015610fe6578082015181840152602081019050610fcb565b83811115610ff5576000848401525b50505050565b6000601f19601f8301169050919050565b600061101782610fac565b6110218185610fb7565b9350611031818560208601610fc8565b61103a81610ffb565b840191505092915050565b6000819050919050565b61105881611045565b82525050565b606082016000820151611074600085018261104f565b506020820151611087602085018261104f565b50604082015161109a604085018261104f565b50505050565b60006101208301600083015184820360008601526110be828261100c565b915050602083015184820360208601526110d8828261100c565b915050604083015184820360408601526110f2828261100c565b9150506060830151611107606086018261104f565b506080830151848203608086015261111f828261100c565b91505060a083015161113460a086018261105e565b5060c083015184820361010086015261114d828261100c565b9150508091505092915050565b6000602082019050818103600083015261117481846110a0565b905092915050565b6000604051905090565b600080fd5b600080fd5b61119981610f70565b81146111a457600080fd5b50565b6000813590506111b681611190565b92915050565b6000602082840312156111d2576111d1611186565b5b60006111e0848285016111a7565b91505092915050565b600082825260208201905092915050565b600061120582610fac565b61120f81856111e9565b935061121f818560208601610fc8565b61122881610ffb565b840191505092915050565b61123c81611045565b82525050565b606082016000820151611258600085018261104f565b50602082015161126b602085018261104f565b50604082015161127e604085018261104f565b50505050565b600061012082019050818103600083015261129f818a6111fa565b905081810360208301526112b381896111fa565b905081810360408301526112c781886111fa565b90506112d66060830187611233565b81810360808301526112e881866111fa565b90506112f760a0830185611242565b81810361010083015261130a81846111fa565b905098975050505050505050565b600080fd5b600080fd5b7f4e487b7100000000000000000000000000000000000000000000000000000000600052604160045260246000fd5b61135a82610ffb565b810181811067ffffffffffffffff8211171561137957611378611322565b5b80604052505050565b600061138c61117c565b90506113988282611351565b919050565b600067ffffffffffffffff8211156113b8576113b7611322565b5b6113c182610ffb565b9050602081019050919050565b82818337600083830152505050565b60006113f06113eb8461139d565b611382565b90508281526020810184848401111561140c5761140b61131d565b5b6114178482856113ce565b509392505050565b600082601f83011261143457611433611318565b5b81356114448482602086016113dd565b91505092915050565b61145681611045565b811461146157600080fd5b50565b6000813590506114738161144d565b92915050565b60008060008060008060008060006101208a8c03121561149c5761149b611186565b5b60008a013567ffffffffffffffff8111156114ba576114b961118b565b5b6114c68c828d0161141f565b99505060208a013567ffffffffffffffff8111156114e7576114e661118b565b5b6114f38c828d0161141f565b98505060408a013567ffffffffffffffff8111156115145761151361118b565b5b6115208c828d0161141f565b97505060606115318c828d01611464565b96505060808a013567ffffffffffffffff8111156115525761155161118b565b5b61155e8c828d0161141f565b95505060a061156f8c828d01611464565b94505060c06115808c828d01611464565b93505060e06115918c828d01611464565b9250506101008a013567ffffffffffffffff8111156115b3576115b261118b565b5b6115bf8c828d0161141f565b9150509295985092959850929598565b6000806000606084860312156115e8576115e7611186565b5b600084013567ffffffffffffffff8111156116065761160561118b565b5b6116128682870161141f565b935050602084013567ffffffffffffffff8111156116335761163261118b565b5b61163f8682870161141f565b925050604084013567ffffffffffffffff8111156116605761165f61118b565b5b61166c8682870161141f565b9150509250925092565b7f4e487b7100000000000000000000000000000000000000000000000000000000600052602260045260246000fd5b600060028204905060018216806116bd57607f821691505b602082108114156116d1576116d0611676565b5b50919050565b7f416374696f6e2063616e206f6e6c7920626520706572666f726d65642062792060008201527f636f6e6365726e6564206f6666696369616c7300000000000000000000000000602082015250565b60006117336033836111e9565b915061173e826116d7565b604082019050919050565b6000602082019050818103600083015261176281611726565b905091905056fea2646970667358221220419d9f476ea6c4759ad63ff26332a9f3e3c1abd7084c1da79b7896d47b9b530564736f6c63430008090033",
  "linkReferences": {},
  "deployedLinkReferences": {}
}