{
  "_format": "hh-sol-artifact-1",
  "contractName": "Passport",
  "sourceName": "contracts/Passport.sol",
  "abi": [
    {
      "inputs": [],
      "stateMutability": "nonpayable",
      "type": "constructor"
    },
    {
      "inputs": [],
      "name": "ADMIN",
      "outputs": [
        {
          "internalType": "address",
          "name": "",
          "type": "address"
        }
      ],
      "stateMutability": "view",
      "type": "function"
    },
    {
      "inputs": [
        {
          "internalType": "address",
          "name": "userId",
          "type": "address"
        }
      ],
      "name": "adminViewPassport",
      "outputs": [
        {
          "components": [
            {
              "internalType": "string",
              "name": "firstName",
              "type": "string"
            },
            {
              "internalType": "string",
              "name": "lastName",
              "type": "string"
            },
            {
              "internalType": "string",
              "name": "gender",
              "type": "string"
            },
            {
              "internalType": "uint256",
              "name": "age",
              "type": "uint256"
            },
            {
              "internalType": "string",
              "name": "nationality",
              "type": "string"
            },
            {
              "components": [
                {
                  "internalType": "uint256",
                  "name": "day",
                  "type": "uint256"
                },
                {
                  "internalType": "uint256",
                  "name": "month",
                  "type": "uint256"
                },
                {
                  "internalType": "uint256",
                  "name": "year",
                  "type": "uint256"
                }
              ],
              "internalType": "struct Passport.Year",
              "name": "dob",
              "type": "tuple"
            },
            {
              "internalType": "string",
              "name": "country",
              "type": "string"
            },
            {
              "internalType": "bool",
              "name": "isVerified",
              "type": "bool"
            },
            {
              "internalType": "bool",
              "name": "isBlacklisted",
              "type": "bool"
            }
          ],
          "internalType": "struct Passport.Person",
          "name": "",
          "type": "tuple"
        }
      ],
      "stateMutability": "view",
      "type": "function"
    },
    {
      "inputs": [
        {
          "internalType": "address",
          "name": "userId",
          "type": "address"
        }
      ],
      "name": "blacklistPassport",
      "outputs": [],
      "stateMutability": "nonpayable",
      "type": "function"
    },
    {
      "inputs": [
        {
          "internalType": "address",
          "name": "userId",
          "type": "address"
        },
        {
          "internalType": "string",
          "name": "_firstName",
          "type": "string"
        },
        {
          "internalType": "string",
          "name": "_lastName",
          "type": "string"
        },
        {
          "internalType": "string",
          "name": "_gender",
          "type": "string"
        },
        {
          "internalType": "uint256",
          "name": "_age",
          "type": "uint256"
        },
        {
          "internalType": "string",
          "name": "_nationality",
          "type": "string"
        },
        {
          "internalType": "uint256",
          "name": "_byear",
          "type": "uint256"
        },
        {
          "internalType": "uint256",
          "name": "_bmonth",
          "type": "uint256"
        },
        {
          "internalType": "uint256",
          "name": "_bday",
          "type": "uint256"
        },
        {
          "internalType": "string",
          "name": "_country",
          "type": "string"
        }
      ],
      "name": "createPassport",
      "outputs": [],
      "stateMutability": "nonpayable",
      "type": "function"
    },
    {
      "inputs": [
        {
          "internalType": "address",
          "name": "userId",
          "type": "address"
        },
        {
          "internalType": "string",
          "name": "_firstName",
          "type": "string"
        },
        {
          "internalType": "string",
          "name": "_lastName",
          "type": "string"
        },
        {
          "internalType": "string",
          "name": "_gender",
          "type": "string"
        }
      ],
      "name": "updatePassport",
      "outputs": [],
      "stateMutability": "nonpayable",
      "type": "function"
    },
    {
      "inputs": [
        {
          "internalType": "address",
          "name": "",
          "type": "address"
        }
      ],
      "name": "user",
      "outputs": [
        {
          "internalType": "string",
          "name": "firstName",
          "type": "string"
        },
        {
          "internalType": "string",
          "name": "lastName",
          "type": "string"
        },
        {
          "internalType": "string",
          "name": "gender",
          "type": "string"
        },
        {
          "internalType": "uint256",
          "name": "age",
          "type": "uint256"
        },
        {
          "internalType": "string",
          "name": "nationality",
          "type": "string"
        },
        {
          "components": [
            {
              "internalType": "uint256",
              "name": "day",
              "type": "uint256"
            },
            {
              "internalType": "uint256",
              "name": "month",
              "type": "uint256"
            },
            {
              "internalType": "uint256",
              "name": "year",
              "type": "uint256"
            }
          ],
          "internalType": "struct Passport.Year",
          "name": "dob",
          "type": "tuple"
        },
        {
          "internalType": "string",
          "name": "country",
          "type": "string"
        },
        {
          "internalType": "bool",
          "name": "isVerified",
          "type": "bool"
        },
        {
          "internalType": "bool",
          "name": "isBlacklisted",
          "type": "bool"
        }
      ],
      "stateMutability": "view",
      "type": "function"
    },
    {
      "inputs": [],
      "name": "userViewPassport",
      "outputs": [
        {
          "components": [
            {
              "internalType": "string",
              "name": "firstName",
              "type": "string"
            },
            {
              "internalType": "string",
              "name": "lastName",
              "type": "string"
            },
            {
              "internalType": "string",
              "name": "gender",
              "type": "string"
            },
            {
              "internalType": "uint256",
              "name": "age",
              "type": "uint256"
            },
            {
              "internalType": "string",
              "name": "nationality",
              "type": "string"
            },
            {
              "components": [
                {
                  "internalType": "uint256",
                  "name": "day",
                  "type": "uint256"
                },
                {
                  "internalType": "uint256",
                  "name": "month",
                  "type": "uint256"
                },
                {
                  "internalType": "uint256",
                  "name": "year",
                  "type": "uint256"
                }
              ],
              "internalType": "struct Passport.Year",
              "name": "dob",
              "type": "tuple"
            },
            {
              "internalType": "string",
              "name": "country",
              "type": "string"
            },
            {
              "internalType": "bool",
              "name": "isVerified",
              "type": "bool"
            },
            {
              "internalType": "bool",
              "name": "isBlacklisted",
              "type": "bool"
            }
          ],
          "internalType": "struct Passport.Person",
          "name": "",
          "type": "tuple"
        }
      ],
      "stateMutability": "view",
      "type": "function"
    },
    {
      "inputs": [
        {
          "internalType": "address",
          "name": "userId",
          "type": "address"
        }
      ],
      "name": "verifyPassport",
      "outputs": [],
      "stateMutability": "nonpayable",
      "type": "function"
    }
  ],
  "bytecode": "0x608060405234801561001057600080fd5b50336000806101000a81548173ffffffffffffffffffffffffffffffffffffffff021916908373ffffffffffffffffffffffffffffffffffffffff160217905550611e84806100606000396000f3fe608060405234801561001057600080fd5b50600436106100885760003560e01c80637d45e2d61161005b5780637d45e2d61461010157806381e7e20e1461011d578063c4c3a72114610155578063eddd8ba51461018557610088565b8063177bedd21461008d5780632a0acc6a146100a957806337f8fb5f146100c757806375ee9f62146100e3575b600080fd5b6100a760048036038101906100a29190611411565b6101a1565b005b6100b161028c565b6040516100be919061144d565b60405180910390f35b6100e160048036038101906100dc91906115e4565b6102b0565b005b6100eb6104f1565b6040516100f89190611926565b60405180910390f35b61011b60048036038101906101169190611411565b610895565b005b61013760048036038101906101329190611411565b610980565b60405161014c999897969594939291906119f2565b60405180910390f35b61016f600480360381019061016a9190611411565b610cb8565b60405161017c9190611926565b60405180910390f35b61019f600480360381019061019a9190611aa4565b6110ec565b005b60008054906101000a900473ffffffffffffffffffffffffffffffffffffffff1673ffffffffffffffffffffffffffffffffffffffff163373ffffffffffffffffffffffffffffffffffffffff161461022f576040517f08c379a000000000000000000000000000000000000000000000000000000000815260040161022690611bd1565b60405180910390fd5b60018060008373ffffffffffffffffffffffffffffffffffffffff1673ffffffffffffffffffffffffffffffffffffffff16815260200190815260200160002060090160016101000a81548160ff02191690831515021790555050565b60008054906101000a900473ffffffffffffffffffffffffffffffffffffffff1681565b60008054906101000a900473ffffffffffffffffffffffffffffffffffffffff1673ffffffffffffffffffffffffffffffffffffffff163373ffffffffffffffffffffffffffffffffffffffff161461033e576040517f08c379a000000000000000000000000000000000000000000000000000000000815260040161033590611c3d565b60405180910390fd5b6040518061012001604052808a8152602001898152602001888152602001878152602001868152602001604051806060016040528085815260200186815260200187815250815260200182815260200160001515815260200160001515815250600160008c73ffffffffffffffffffffffffffffffffffffffff1673ffffffffffffffffffffffffffffffffffffffff16815260200190815260200160002060008201518160000190805190602001906103f9929190611285565b506020820151816001019080519060200190610416929190611285565b506040820151816002019080519060200190610433929190611285565b5060608201518160030155608082015181600401908051906020019061045a929190611285565b5060a082015181600501600082015181600001556020820151816001015560408201518160020155505060c08201518160080190805190602001906104a0929190611285565b5060e08201518160090160006101000a81548160ff0219169083151502179055506101008201518160090160016101000a81548160ff02191690831515021790555090505050505050505050505050565b6104f961130b565b600160003373ffffffffffffffffffffffffffffffffffffffff1673ffffffffffffffffffffffffffffffffffffffff1681526020019081526020016000206040518061012001604052908160008201805461055490611c8c565b80601f016020809104026020016040519081016040528092919081815260200182805461058090611c8c565b80156105cd5780601f106105a2576101008083540402835291602001916105cd565b820191906000526020600020905b8154815290600101906020018083116105b057829003601f168201915b505050505081526020016001820180546105e690611c8c565b80601f016020809104026020016040519081016040528092919081815260200182805461061290611c8c565b801561065f5780601f106106345761010080835404028352916020019161065f565b820191906000526020600020905b81548152906001019060200180831161064257829003601f168201915b5050505050815260200160028201805461067890611c8c565b80601f01602080910402602001604051908101604052809291908181526020018280546106a490611c8c565b80156106f15780601f106106c6576101008083540402835291602001916106f1565b820191906000526020600020905b8154815290600101906020018083116106d457829003601f168201915b505050505081526020016003820154815260200160048201805461071490611c8c565b80601f016020809104026020016040519081016040528092919081815260200182805461074090611c8c565b801561078d5780601f106107625761010080835404028352916020019161078d565b820191906000526020600020905b81548152906001019060200180831161077057829003601f168201915b5050505050815260200160058201604051806060016040529081600082015481526020016001820154815260200160028201548152505081526020016008820180546107d890611c8c565b80601f016020809104026020016040519081016040528092919081815260200182805461080490611c8c565b80156108515780601f1061082657610100808354040283529160200191610851565b820191906000526020600020905b81548152906001019060200180831161083457829003601f168201915b505050505081526020016009820160009054906101000a900460ff161515151581526020016009820160019054906101000a900460ff161515151581525050905090565b60008054906101000a900473ffffffffffffffffffffffffffffffffffffffff1673ffffffffffffffffffffffffffffffffffffffff163373ffffffffffffffffffffffffffffffffffffffff1614610923576040517f08c379a000000000000000000000000000000000000000000000000000000000815260040161091a90611d30565b60405180910390fd5b60018060008373ffffffffffffffffffffffffffffffffffffffff1673ffffffffffffffffffffffffffffffffffffffff16815260200190815260200160002060090160006101000a81548160ff02191690831515021790555050565b60016020528060005260406000206000915090508060000180546109a390611c8c565b80601f01602080910402602001604051908101604052809291908181526020018280546109cf90611c8c565b8015610a1c5780601f106109f157610100808354040283529160200191610a1c565b820191906000526020600020905b8154815290600101906020018083116109ff57829003601f168201915b505050505090806001018054610a3190611c8c565b80601f0160208091040260200160405190810160405280929190818152602001828054610a5d90611c8c565b8015610aaa5780601f10610a7f57610100808354040283529160200191610aaa565b820191906000526020600020905b815481529060010190602001808311610a8d57829003601f168201915b505050505090806002018054610abf90611c8c565b80601f0160208091040260200160405190810160405280929190818152602001828054610aeb90611c8c565b8015610b385780601f10610b0d57610100808354040283529160200191610b38565b820191906000526020600020905b815481529060010190602001808311610b1b57829003601f168201915b505050505090806003015490806004018054610b5390611c8c565b80601f0160208091040260200160405190810160405280929190818152602001828054610b7f90611c8c565b8015610bcc5780601f10610ba157610100808354040283529160200191610bcc565b820191906000526020600020905b815481529060010190602001808311610baf57829003601f168201915b50505050509080600501604051806060016040529081600082015481526020016001820154815260200160028201548152505090806008018054610c0f90611c8c565b80601f0160208091040260200160405190810160405280929190818152602001828054610c3b90611c8c565b8015610c885780601f10610c5d57610100808354040283529160200191610c88565b820191906000526020600020905b815481529060010190602001808311610c6b57829003601f168201915b5050505050908060090160009054906101000a900460ff16908060090160019054906101000a900460ff16905089565b610cc061130b565b60008054906101000a900473ffffffffffffffffffffffffffffffffffffffff1673ffffffffffffffffffffffffffffffffffffffff163373ffffffffffffffffffffffffffffffffffffffff1614610d4e576040517f08c379a0000000000000000000000000000000000000000000000000000000008152600401610d4590611dc2565b60405180910390fd5b600160008373ffffffffffffffffffffffffffffffffffffffff1673ffffffffffffffffffffffffffffffffffffffff16815260200190815260200160002060405180610120016040529081600082018054610da990611c8c565b80601f0160208091040260200160405190810160405280929190818152602001828054610dd590611c8c565b8015610e225780601f10610df757610100808354040283529160200191610e22565b820191906000526020600020905b815481529060010190602001808311610e0557829003601f168201915b50505050508152602001600182018054610e3b90611c8c565b80601f0160208091040260200160405190810160405280929190818152602001828054610e6790611c8c565b8015610eb45780601f10610e8957610100808354040283529160200191610eb4565b820191906000526020600020905b815481529060010190602001808311610e9757829003601f168201915b50505050508152602001600282018054610ecd90611c8c565b80601f0160208091040260200160405190810160405280929190818152602001828054610ef990611c8c565b8015610f465780601f10610f1b57610100808354040283529160200191610f46565b820191906000526020600020905b815481529060010190602001808311610f2957829003601f168201915b5050505050815260200160038201548152602001600482018054610f6990611c8c565b80601f0160208091040260200160405190810160405280929190818152602001828054610f9590611c8c565b8015610fe25780601f10610fb757610100808354040283529160200191610fe2565b820191906000526020600020905b815481529060010190602001808311610fc557829003601f168201915b50505050508152602001600582016040518060600160405290816000820154815260200160018201548152602001600282015481525050815260200160088201805461102d90611c8c565b80601f016020809104026020016040519081016040528092919081815260200182805461105990611c8c565b80156110a65780601f1061107b576101008083540402835291602001916110a6565b820191906000526020600020905b81548152906001019060200180831161108957829003601f168201915b505050505081526020016009820160009054906101000a900460ff161515151581526020016009820160019054906101000a900460ff1615151515815250509050919050565b60008054906101000a900473ffffffffffffffffffffffffffffffffffffffff1673ffffffffffffffffffffffffffffffffffffffff163373ffffffffffffffffffffffffffffffffffffffff161461117a576040517f08c379a000000000000000000000000000000000000000000000000000000000815260040161117190611e2e565b60405180910390fd5b82600160008673ffffffffffffffffffffffffffffffffffffffff1673ffffffffffffffffffffffffffffffffffffffff16815260200190815260200160002060000190805190602001906111d0929190611285565b5081600160008673ffffffffffffffffffffffffffffffffffffffff1673ffffffffffffffffffffffffffffffffffffffff1681526020019081526020016000206001019080519060200190611227929190611285565b5080600160008673ffffffffffffffffffffffffffffffffffffffff1673ffffffffffffffffffffffffffffffffffffffff168152602001908152602001600020600201908051906020019061127e929190611285565b5050505050565b82805461129190611c8c565b90600052602060002090601f0160209004810192826112b357600085556112fa565b82601f106112cc57805160ff19168380011785556112fa565b828001600101855582156112fa579182015b828111156112f95782518255916020019190600101906112de565b5b5090506113079190611361565b5090565b604051806101200160405280606081526020016060815260200160608152602001600081526020016060815260200161134261137e565b8152602001606081526020016000151581526020016000151581525090565b5b8082111561137a576000816000905550600101611362565b5090565b60405180606001604052806000815260200160008152602001600081525090565b6000604051905090565b600080fd5b600080fd5b600073ffffffffffffffffffffffffffffffffffffffff82169050919050565b60006113de826113b3565b9050919050565b6113ee816113d3565b81146113f957600080fd5b50565b60008135905061140b816113e5565b92915050565b600060208284031215611427576114266113a9565b5b6000611435848285016113fc565b91505092915050565b611447816113d3565b82525050565b6000602082019050611462600083018461143e565b92915050565b600080fd5b600080fd5b6000601f19601f8301169050919050565b7f4e487b7100000000000000000000000000000000000000000000000000000000600052604160045260246000fd5b6114bb82611472565b810181811067ffffffffffffffff821117156114da576114d9611483565b5b80604052505050565b60006114ed61139f565b90506114f982826114b2565b919050565b600067ffffffffffffffff82111561151957611518611483565b5b61152282611472565b9050602081019050919050565b82818337600083830152505050565b600061155161154c846114fe565b6114e3565b90508281526020810184848401111561156d5761156c61146d565b5b61157884828561152f565b509392505050565b600082601f83011261159557611594611468565b5b81356115a584826020860161153e565b91505092915050565b6000819050919050565b6115c1816115ae565b81146115cc57600080fd5b50565b6000813590506115de816115b8565b92915050565b6000806000806000806000806000806101408b8d031215611608576116076113a9565b5b60006116168d828e016113fc565b9a505060208b013567ffffffffffffffff811115611637576116366113ae565b5b6116438d828e01611580565b99505060408b013567ffffffffffffffff811115611664576116636113ae565b5b6116708d828e01611580565b98505060608b013567ffffffffffffffff811115611691576116906113ae565b5b61169d8d828e01611580565b97505060806116ae8d828e016115cf565b96505060a08b013567ffffffffffffffff8111156116cf576116ce6113ae565b5b6116db8d828e01611580565b95505060c06116ec8d828e016115cf565b94505060e06116fd8d828e016115cf565b93505061010061170f8d828e016115cf565b9250506101208b013567ffffffffffffffff811115611731576117306113ae565b5b61173d8d828e01611580565b9150509295989b9194979a5092959850565b600081519050919050565b600082825260208201905092915050565b60005b8381101561178957808201518184015260208101905061176e565b83811115611798576000848401525b50505050565b60006117a98261174f565b6117b3818561175a565b93506117c381856020860161176b565b6117cc81611472565b840191505092915050565b6117e0816115ae565b82525050565b6060820160008201516117fc60008501826117d7565b50602082015161180f60208501826117d7565b50604082015161182260408501826117d7565b50505050565b60008115159050919050565b61183d81611828565b82525050565b6000610160830160008301518482036000860152611861828261179e565b9150506020830151848203602086015261187b828261179e565b91505060408301518482036040860152611895828261179e565b91505060608301516118aa60608601826117d7565b50608083015184820360808601526118c2828261179e565b91505060a08301516118d760a08601826117e6565b5060c08301518482036101008601526118f0828261179e565b91505060e0830151611906610120860182611834565b5061010083015161191b610140860182611834565b508091505092915050565b600060208201905081810360008301526119408184611843565b905092915050565b600082825260208201905092915050565b60006119648261174f565b61196e8185611948565b935061197e81856020860161176b565b61198781611472565b840191505092915050565b61199b816115ae565b82525050565b6060820160008201516119b760008501826117d7565b5060208201516119ca60208501826117d7565b5060408201516119dd60408501826117d7565b50505050565b6119ec81611828565b82525050565b6000610160820190508181036000830152611a0d818c611959565b90508181036020830152611a21818b611959565b90508181036040830152611a35818a611959565b9050611a446060830189611992565b8181036080830152611a568188611959565b9050611a6560a08301876119a1565b818103610100830152611a788186611959565b9050611a886101208301856119e3565b611a966101408301846119e3565b9a9950505050505050505050565b60008060008060808587031215611abe57611abd6113a9565b5b6000611acc878288016113fc565b945050602085013567ffffffffffffffff811115611aed57611aec6113ae565b5b611af987828801611580565b935050604085013567ffffffffffffffff811115611b1a57611b196113ae565b5b611b2687828801611580565b925050606085013567ffffffffffffffff811115611b4757611b466113ae565b5b611b5387828801611580565b91505092959194509250565b7f43616e206f6e6c7920626520626c61636b6c697374656420627920636f6e636560008201527f726e6564206f6666696369616c73000000000000000000000000000000000000602082015250565b6000611bbb602e83611948565b9150611bc682611b5f565b604082019050919050565b60006020820190508181036000830152611bea81611bae565b9050919050565b7f4f6e6c792061646d696e732063616e206372656174652070617373706f727400600082015250565b6000611c27601f83611948565b9150611c3282611bf1565b602082019050919050565b60006020820190508181036000830152611c5681611c1a565b9050919050565b7f4e487b7100000000000000000000000000000000000000000000000000000000600052602260045260246000fd5b60006002820490506001821680611ca457607f821691505b60208210811415611cb857611cb7611c5d565b5b50919050565b7f57696c6c206265207665726966696420627920636f6e6365726e6564206f666660008201527f696369616c730000000000000000000000000000000000000000000000000000602082015250565b6000611d1a602683611948565b9150611d2582611cbe565b604082019050919050565b60006020820190508181036000830152611d4981611d0d565b9050919050565b7f416374696f6e2063616e206f6e6c7920626520706572666f726d65642062792060008201527f636f6e6365726e6564206f6666696369616c7300000000000000000000000000602082015250565b6000611dac603383611948565b9150611db782611d50565b604082019050919050565b60006020820190508181036000830152611ddb81611d9f565b9050919050565b7f4f6e6c792041646d696e732063616e206d616b65206368616e67657300000000600082015250565b6000611e18601c83611948565b9150611e2382611de2565b602082019050919050565b60006020820190508181036000830152611e4781611e0b565b905091905056fea26469706673582212202d4b451cdfee7768119c1822a85b1510f787e9a35d3669a4d576ea9ae714a49764736f6c63430008090033",
  "linkReferences": {},
  "deployedLinkReferences": {}
}