{
  "_format": "hh-sol-artifact-1",
  "contractName": "Passport",
  "sourceName": "contracts/Passport.sol",
  "abi": [
    {
      "inputs": [
        {
          "internalType": "string",
          "name": "_firstName",
          "type": "string"
        },
        {
          "internalType": "string",
          "name": "_lastName",
          "type": "string"
        },
        {
          "internalType": "string",
          "name": "_gender",
          "type": "string"
        },
        {
          "internalType": "uint256",
          "name": "_age",
          "type": "uint256"
        },
        {
          "internalType": "string",
          "name": "_nationality",
          "type": "string"
        },
        {
          "internalType": "uint256",
          "name": "_byear",
          "type": "uint256"
        },
        {
          "internalType": "uint256",
          "name": "_bmonth",
          "type": "uint256"
        },
        {
          "internalType": "uint256",
          "name": "_bday",
          "type": "uint256"
        },
        {
          "internalType": "string",
          "name": "_country",
          "type": "string"
        }
      ],
      "name": "createPassport",
      "outputs": [],
      "stateMutability": "nonpayable",
      "type": "function"
    },
    {
      "inputs": [
        {
          "internalType": "string",
          "name": "_firstName",
          "type": "string"
        },
        {
          "internalType": "string",
          "name": "_lastName",
          "type": "string"
        },
        {
          "internalType": "string",
          "name": "_gender",
          "type": "string"
        }
      ],
      "name": "updatePassport",
      "outputs": [],
      "stateMutability": "nonpayable",
      "type": "function"
    },
    {
      "inputs": [
        {
          "internalType": "address",
          "name": "",
          "type": "address"
        }
      ],
      "name": "user",
      "outputs": [
        {
          "internalType": "string",
          "name": "firstName",
          "type": "string"
        },
        {
          "internalType": "string",
          "name": "lastName",
          "type": "string"
        },
        {
          "internalType": "string",
          "name": "gender",
          "type": "string"
        },
        {
          "internalType": "uint256",
          "name": "age",
          "type": "uint256"
        },
        {
          "internalType": "string",
          "name": "nationality",
          "type": "string"
        },
        {
          "components": [
            {
              "internalType": "uint256",
              "name": "day",
              "type": "uint256"
            },
            {
              "internalType": "uint256",
              "name": "month",
              "type": "uint256"
            },
            {
              "internalType": "uint256",
              "name": "year",
              "type": "uint256"
            }
          ],
          "internalType": "struct Passport.Year",
          "name": "dob",
          "type": "tuple"
        },
        {
          "internalType": "string",
          "name": "country",
          "type": "string"
        }
      ],
      "stateMutability": "view",
      "type": "function"
    },
    {
      "inputs": [],
      "name": "viewPassport",
      "outputs": [
        {
          "components": [
            {
              "internalType": "string",
              "name": "firstName",
              "type": "string"
            },
            {
              "internalType": "string",
              "name": "lastName",
              "type": "string"
            },
            {
              "internalType": "string",
              "name": "gender",
              "type": "string"
            },
            {
              "internalType": "uint256",
              "name": "age",
              "type": "uint256"
            },
            {
              "internalType": "string",
              "name": "nationality",
              "type": "string"
            },
            {
              "components": [
                {
                  "internalType": "uint256",
                  "name": "day",
                  "type": "uint256"
                },
                {
                  "internalType": "uint256",
                  "name": "month",
                  "type": "uint256"
                },
                {
                  "internalType": "uint256",
                  "name": "year",
                  "type": "uint256"
                }
              ],
              "internalType": "struct Passport.Year",
              "name": "dob",
              "type": "tuple"
            },
            {
              "internalType": "string",
              "name": "country",
              "type": "string"
            }
          ],
          "internalType": "struct Passport.Person",
          "name": "",
          "type": "tuple"
        }
      ],
      "stateMutability": "view",
      "type": "function"
    }
  ],
  "bytecode": "0x6080604052336000806101000a81548173ffffffffffffffffffffffffffffffffffffffff021916908373ffffffffffffffffffffffffffffffffffffffff16021790555034801561005057600080fd5b5061125e806100606000396000f3fe608060405234801561001057600080fd5b506004361061004c5760003560e01c806381e7e20e14610051578063849cf362146100875780639d22bc69146100a3578063bf09626a146100bf575b600080fd5b61006b60048036038101906100669190610b3d565b6100dd565b60405161007e9796959493929190610c6d565b60405180910390f35b6100a1600480360381019061009c9190610e62565b6103ef565b005b6100bd60048036038101906100b89190610fb8565b61054d565b005b6100c7610657565b6040516100d491906111a5565b60405180910390f35b6001602052806000526040600020600091509050806000018054610100906111f6565b80601f016020809104026020016040519081016040528092919081815260200182805461012c906111f6565b80156101795780601f1061014e57610100808354040283529160200191610179565b820191906000526020600020905b81548152906001019060200180831161015c57829003601f168201915b50505050509080600101805461018e906111f6565b80601f01602080910402602001604051908101604052809291908181526020018280546101ba906111f6565b80156102075780601f106101dc57610100808354040283529160200191610207565b820191906000526020600020905b8154815290600101906020018083116101ea57829003601f168201915b50505050509080600201805461021c906111f6565b80601f0160208091040260200160405190810160405280929190818152602001828054610248906111f6565b80156102955780601f1061026a57610100808354040283529160200191610295565b820191906000526020600020905b81548152906001019060200180831161027857829003601f168201915b5050505050908060030154908060040180546102b0906111f6565b80601f01602080910402602001604051908101604052809291908181526020018280546102dc906111f6565b80156103295780601f106102fe57610100808354040283529160200191610329565b820191906000526020600020905b81548152906001019060200180831161030c57829003601f168201915b5050505050908060050160405180606001604052908160008201548152602001600182015481526020016002820154815250509080600801805461036c906111f6565b80601f0160208091040260200160405190810160405280929190818152602001828054610398906111f6565b80156103e55780601f106103ba576101008083540402835291602001916103e5565b820191906000526020600020905b8154815290600101906020018083116103c857829003601f168201915b5050505050905087565b6040518060e001604052808a8152602001898152602001888152602001878152602001868152602001604051806060016040528085815260200186815260200187815250815260200182815250600160003373ffffffffffffffffffffffffffffffffffffffff1673ffffffffffffffffffffffffffffffffffffffff16815260200190815260200160002060008201518160000190805190602001906104979291906109c4565b5060208201518160010190805190602001906104b49291906109c4565b5060408201518160020190805190602001906104d19291906109c4565b506060820151816003015560808201518160040190805190602001906104f89291906109c4565b5060a082015181600501600082015181600001556020820151816001015560408201518160020155505060c082015181600801908051906020019061053e9291906109c4565b50905050505050505050505050565b82600160003373ffffffffffffffffffffffffffffffffffffffff1673ffffffffffffffffffffffffffffffffffffffff16815260200190815260200160002060000190805190602001906105a39291906109c4565b5081600160003373ffffffffffffffffffffffffffffffffffffffff1673ffffffffffffffffffffffffffffffffffffffff16815260200190815260200160002060010190805190602001906105fa9291906109c4565b5080600160003373ffffffffffffffffffffffffffffffffffffffff1673ffffffffffffffffffffffffffffffffffffffff16815260200190815260200160002060020190805190602001906106519291906109c4565b50505050565b61065f610a4a565b600160003373ffffffffffffffffffffffffffffffffffffffff1673ffffffffffffffffffffffffffffffffffffffff1681526020019081526020016000206040518060e00160405290816000820180546106b9906111f6565b80601f01602080910402602001604051908101604052809291908181526020018280546106e5906111f6565b80156107325780601f1061070757610100808354040283529160200191610732565b820191906000526020600020905b81548152906001019060200180831161071557829003601f168201915b5050505050815260200160018201805461074b906111f6565b80601f0160208091040260200160405190810160405280929190818152602001828054610777906111f6565b80156107c45780601f10610799576101008083540402835291602001916107c4565b820191906000526020600020905b8154815290600101906020018083116107a757829003601f168201915b505050505081526020016002820180546107dd906111f6565b80601f0160208091040260200160405190810160405280929190818152602001828054610809906111f6565b80156108565780601f1061082b57610100808354040283529160200191610856565b820191906000526020600020905b81548152906001019060200180831161083957829003601f168201915b5050505050815260200160038201548152602001600482018054610879906111f6565b80601f01602080910402602001604051908101604052809291908181526020018280546108a5906111f6565b80156108f25780601f106108c7576101008083540402835291602001916108f2565b820191906000526020600020905b8154815290600101906020018083116108d557829003601f168201915b50505050508152602001600582016040518060600160405290816000820154815260200160018201548152602001600282015481525050815260200160088201805461093d906111f6565b80601f0160208091040260200160405190810160405280929190818152602001828054610969906111f6565b80156109b65780601f1061098b576101008083540402835291602001916109b6565b820191906000526020600020905b81548152906001019060200180831161099957829003601f168201915b505050505081525050905090565b8280546109d0906111f6565b90600052602060002090601f0160209004810192826109f25760008555610a39565b82601f10610a0b57805160ff1916838001178555610a39565b82800160010185558215610a39579182015b82811115610a38578251825591602001919060010190610a1d565b5b509050610a469190610a8d565b5090565b6040518060e001604052806060815260200160608152602001606081526020016000815260200160608152602001610a80610aaa565b8152602001606081525090565b5b80821115610aa6576000816000905550600101610a8e565b5090565b60405180606001604052806000815260200160008152602001600081525090565b6000604051905090565b600080fd5b600080fd5b600073ffffffffffffffffffffffffffffffffffffffff82169050919050565b6000610b0a82610adf565b9050919050565b610b1a81610aff565b8114610b2557600080fd5b50565b600081359050610b3781610b11565b92915050565b600060208284031215610b5357610b52610ad5565b5b6000610b6184828501610b28565b91505092915050565b600081519050919050565b600082825260208201905092915050565b60005b83811015610ba4578082015181840152602081019050610b89565b83811115610bb3576000848401525b50505050565b6000601f19601f8301169050919050565b6000610bd582610b6a565b610bdf8185610b75565b9350610bef818560208601610b86565b610bf881610bb9565b840191505092915050565b6000819050919050565b610c1681610c03565b82525050565b610c2581610c03565b82525050565b606082016000820151610c416000850182610c1c565b506020820151610c546020850182610c1c565b506040820151610c676040850182610c1c565b50505050565b6000610120820190508181036000830152610c88818a610bca565b90508181036020830152610c9c8189610bca565b90508181036040830152610cb08188610bca565b9050610cbf6060830187610c0d565b8181036080830152610cd18186610bca565b9050610ce060a0830185610c2b565b818103610100830152610cf38184610bca565b905098975050505050505050565b600080fd5b600080fd5b7f4e487b7100000000000000000000000000000000000000000000000000000000600052604160045260246000fd5b610d4382610bb9565b810181811067ffffffffffffffff82111715610d6257610d61610d0b565b5b80604052505050565b6000610d75610acb565b9050610d818282610d3a565b919050565b600067ffffffffffffffff821115610da157610da0610d0b565b5b610daa82610bb9565b9050602081019050919050565b82818337600083830152505050565b6000610dd9610dd484610d86565b610d6b565b905082815260208101848484011115610df557610df4610d06565b5b610e00848285610db7565b509392505050565b600082601f830112610e1d57610e1c610d01565b5b8135610e2d848260208601610dc6565b91505092915050565b610e3f81610c03565b8114610e4a57600080fd5b50565b600081359050610e5c81610e36565b92915050565b60008060008060008060008060006101208a8c031215610e8557610e84610ad5565b5b60008a013567ffffffffffffffff811115610ea357610ea2610ada565b5b610eaf8c828d01610e08565b99505060208a013567ffffffffffffffff811115610ed057610ecf610ada565b5b610edc8c828d01610e08565b98505060408a013567ffffffffffffffff811115610efd57610efc610ada565b5b610f098c828d01610e08565b9750506060610f1a8c828d01610e4d565b96505060808a013567ffffffffffffffff811115610f3b57610f3a610ada565b5b610f478c828d01610e08565b95505060a0610f588c828d01610e4d565b94505060c0610f698c828d01610e4d565b93505060e0610f7a8c828d01610e4d565b9250506101008a013567ffffffffffffffff811115610f9c57610f9b610ada565b5b610fa88c828d01610e08565b9150509295985092959850929598565b600080600060608486031215610fd157610fd0610ad5565b5b600084013567ffffffffffffffff811115610fef57610fee610ada565b5b610ffb86828701610e08565b935050602084013567ffffffffffffffff81111561101c5761101b610ada565b5b61102886828701610e08565b925050604084013567ffffffffffffffff81111561104957611048610ada565b5b61105586828701610e08565b9150509250925092565b600082825260208201905092915050565b600061107b82610b6a565b611085818561105f565b9350611095818560208601610b86565b61109e81610bb9565b840191505092915050565b6060820160008201516110bf6000850182610c1c565b5060208201516110d26020850182610c1c565b5060408201516110e56040850182610c1c565b50505050565b60006101208301600083015184820360008601526111098282611070565b915050602083015184820360208601526111238282611070565b9150506040830151848203604086015261113d8282611070565b91505060608301516111526060860182610c1c565b506080830151848203608086015261116a8282611070565b91505060a083015161117f60a08601826110a9565b5060c08301518482036101008601526111988282611070565b9150508091505092915050565b600060208201905081810360008301526111bf81846110eb565b905092915050565b7f4e487b7100000000000000000000000000000000000000000000000000000000600052602260045260246000fd5b6000600282049050600182168061120e57607f821691505b60208210811415611222576112216111c7565b5b5091905056fea2646970667358221220c0b98bbb99b81597525d60ac1e5a0817c5d5ff734e5af813bc233920b55481d764736f6c63430008090033",
  "linkReferences": {},
  "deployedLinkReferences": {}
}